{
  "contractName": "SealedBidAuction",
  "abi": [
    {
      "anonymous": false,
      "inputs": [
        {
          "indexed": true,
          "internalType": "uint256",
          "name": "auctionId",
          "type": "uint256"
        },
        {
          "indexed": true,
          "internalType": "address",
          "name": "bidder",
          "type": "address"
        }
      ],
      "name": "BidCommitted",
      "type": "event"
    },
    {
      "anonymous": false,
      "inputs": [
        {
          "indexed": true,
          "internalType": "uint256",
          "name": "auctionId",
          "type": "uint256"
        },
        {
          "indexed": true,
          "internalType": "address",
          "name": "bidder",
          "type": "address"
        },
        {
          "indexed": false,
          "internalType": "uint256",
          "name": "amount",
          "type": "uint256"
        },
        {
          "indexed": false,
          "internalType": "bool",
          "name": "valid",
          "type": "bool"
        }
      ],
      "name": "BidRevealed",
      "type": "event"
    },
    {
      "anonymous": false,
      "inputs": [
        {
          "indexed": true,
          "internalType": "address",
          "name": "who",
          "type": "address"
        },
        {
          "indexed": false,
          "internalType": "uint256",
          "name": "amount",
          "type": "uint256"
        }
      ],
      "name": "RefundWithdrawn",
      "type": "event"
    },
    {
      "anonymous": false,
      "inputs": [
        {
          "indexed": true,
          "internalType": "uint256",
          "name": "auctionId",
          "type": "uint256"
        },
        {
          "indexed": false,
          "internalType": "address",
          "name": "seller",
          "type": "address"
        },
        {
          "indexed": false,
          "internalType": "uint256",
          "name": "biddingEnd",
          "type": "uint256"
        },
        {
          "indexed": false,
          "internalType": "uint256",
          "name": "revealEnd",
          "type": "uint256"
        }
      ],
      "name": "SealedAuctionCreated",
      "type": "event"
    },
    {
      "anonymous": false,
      "inputs": [
        {
          "indexed": true,
          "internalType": "uint256",
          "name": "auctionId",
          "type": "uint256"
        },
        {
          "indexed": false,
          "internalType": "address",
          "name": "winner",
          "type": "address"
        },
        {
          "indexed": false,
          "internalType": "uint256",
          "name": "amount",
          "type": "uint256"
        }
      ],
      "name": "SealedAuctionFinalized",
      "type": "event"
    },
    {
      "inputs": [
        {
          "internalType": "uint256",
          "name": "",
          "type": "uint256"
        },
        {
          "internalType": "address",
          "name": "",
          "type": "address"
        }
      ],
      "name": "commitments",
      "outputs": [
        {
          "internalType": "bytes32",
          "name": "commitment",
          "type": "bytes32"
        },
        {
          "internalType": "uint256",
          "name": "bond",
          "type": "uint256"
        },
        {
          "internalType": "bool",
          "name": "revealed",
          "type": "bool"
        },
        {
          "internalType": "uint256",
          "name": "revealedAmount",
          "type": "uint256"
        }
      ],
      "stateMutability": "view",
      "type": "function",
      "constant": true
    },
    {
      "inputs": [
        {
          "internalType": "address",
          "name": "",
          "type": "address"
        }
      ],
      "name": "pendingRefunds",
      "outputs": [
        {
          "internalType": "uint256",
          "name": "",
          "type": "uint256"
        }
      ],
      "stateMutability": "view",
      "type": "function",
      "constant": true
    },
    {
      "inputs": [],
      "name": "sealedAuctionCount",
      "outputs": [
        {
          "internalType": "uint256",
          "name": "",
          "type": "uint256"
        }
      ],
      "stateMutability": "view",
      "type": "function",
      "constant": true
    },
    {
      "inputs": [
        {
          "internalType": "uint256",
          "name": "",
          "type": "uint256"
        }
      ],
      "name": "sealedAuctions",
      "outputs": [
        {
          "internalType": "address payable",
          "name": "seller",
          "type": "address"
        },
        {
          "internalType": "uint256",
          "name": "startTime",
          "type": "uint256"
        },
        {
          "internalType": "uint256",
          "name": "biddingEnd",
          "type": "uint256"
        },
        {
          "internalType": "uint256",
          "name": "revealEnd",
          "type": "uint256"
        },
        {
          "internalType": "bool",
          "name": "finalized",
          "type": "bool"
        },
        {
          "internalType": "address",
          "name": "winner",
          "type": "address"
        },
        {
          "internalType": "uint256",
          "name": "winningBid",
          "type": "uint256"
        }
      ],
      "stateMutability": "view",
      "type": "function",
      "constant": true
    },
    {
      "stateMutability": "payable",
      "type": "receive",
      "payable": true
    },
    {
      "inputs": [
        {
          "internalType": "uint256",
          "name": "amount",
          "type": "uint256"
        },
        {
          "internalType": "bytes32",
          "name": "nonce",
          "type": "bytes32"
        },
        {
          "internalType": "address",
          "name": "bidder",
          "type": "address"
        }
      ],
      "name": "makeCommitment",
      "outputs": [
        {
          "internalType": "bytes32",
          "name": "",
          "type": "bytes32"
        }
      ],
      "stateMutability": "pure",
      "type": "function",
      "constant": true
    },
    {
      "inputs": [
        {
          "internalType": "uint256",
          "name": "_biddingDuration",
          "type": "uint256"
        },
        {
          "internalType": "uint256",
          "name": "_revealDuration",
          "type": "uint256"
        }
      ],
      "name": "createSealedAuction",
      "outputs": [
        {
          "internalType": "uint256",
          "name": "auctionId",
          "type": "uint256"
        }
      ],
      "stateMutability": "nonpayable",
      "type": "function"
    },
    {
      "inputs": [
        {
          "internalType": "uint256",
          "name": "auctionId",
          "type": "uint256"
        },
        {
          "internalType": "bytes32",
          "name": "commitment",
          "type": "bytes32"
        }
      ],
      "name": "commitBid",
      "outputs": [],
      "stateMutability": "payable",
      "type": "function",
      "payable": true
    },
    {
      "inputs": [
        {
          "internalType": "uint256",
          "name": "auctionId",
          "type": "uint256"
        },
        {
          "internalType": "bytes32",
          "name": "newCommitment",
          "type": "bytes32"
        }
      ],
      "name": "updateBid",
      "outputs": [],
      "stateMutability": "payable",
      "type": "function",
      "payable": true
    },
    {
      "inputs": [
        {
          "internalType": "uint256",
          "name": "auctionId",
          "type": "uint256"
        },
        {
          "internalType": "uint256",
          "name": "amount",
          "type": "uint256"
        },
        {
          "internalType": "bytes32",
          "name": "nonce",
          "type": "bytes32"
        }
      ],
      "name": "revealBid",
      "outputs": [],
      "stateMutability": "nonpayable",
      "type": "function"
    },
    {
      "inputs": [
        {
          "internalType": "uint256",
          "name": "auctionId",
          "type": "uint256"
        }
      ],
      "name": "finalizeAuction",
      "outputs": [],
      "stateMutability": "nonpayable",
      "type": "function"
    },
    {
      "inputs": [],
      "name": "withdrawRefund",
      "outputs": [
        {
          "internalType": "bool",
          "name": "",
          "type": "bool"
        }
      ],
      "stateMutability": "nonpayable",
      "type": "function"
    },
    {
      "inputs": [
        {
          "internalType": "uint256",
          "name": "auctionId",
          "type": "uint256"
        }
      ],
      "name": "getBidders",
      "outputs": [
        {
          "internalType": "address[]",
          "name": "",
          "type": "address[]"
        }
      ],
      "stateMutability": "view",
      "type": "function",
      "constant": true
    }
  ],
  "bytecode": "0x608060405234801561001057600080fd5b506127d0806100206000396000f3fe6080604052600436106100ab5760003560e01c8063b0c3f5f911610064578063b0c3f5f91461021d578063b613b1141461025a578063cebccb5014610297578063d94f6e95146102c2578063e8083863146102de578063e90d4c0614610307576100eb565b8063110f8874146100f05780634d380a0d1461011b5780634fa7b507146101445780638fd4079a146101815780639468cb61146101c45780639c668a15146101e0576100eb565b366100eb576040517f08c379a00000000000000000000000000000000000000000000000000000000081526004016100e2906118fc565b60405180910390fd5b600080fd5b3480156100fc57600080fd5b50610105610347565b6040516101129190611937565b60405180910390f35b34801561012757600080fd5b50610142600480360381019061013d91906119c3565b6105b3565b005b34801561015057600080fd5b5061016b60048036038101906101669190611a16565b610b31565b6040516101789190611b33565b60405180910390f35b34801561018d57600080fd5b506101a860048036038101906101a39190611a16565b610bd2565b6040516101bb9796959493929190611b94565b60405180910390f35b6101de60048036038101906101d99190611c03565b610c61565b005b3480156101ec57600080fd5b5061020760048036038101906102029190611c43565b611101565b6040516102149190611c83565b60405180910390f35b34801561022957600080fd5b50610244600480360381019061023f9190611cca565b61135d565b6040516102519190611d2c565b60405180910390f35b34801561026657600080fd5b50610281600480360381019061027c9190611d47565b611393565b60405161028e9190611c83565b60405180910390f35b3480156102a357600080fd5b506102ac6113ab565b6040516102b99190611c83565b60405180910390f35b6102dc60048036038101906102d79190611c03565b6113b1565b005b3480156102ea57600080fd5b5061030560048036038101906103009190611a16565b611569565b005b34801561031357600080fd5b5061032e60048036038101906103299190611d74565b611855565b60405161033e9493929190611db4565b60405180910390f35b6000600660009054906101000a900460ff1615610399576040517f08c379a000000000000000000000000000000000000000000000000000000000815260040161039090611e45565b60405180910390fd5b6001600660006101000a81548160ff0219169083151502179055506000600560003373ffffffffffffffffffffffffffffffffffffffff1673ffffffffffffffffffffffffffffffffffffffff1681526020019081526020016000205490506000811161043b576040517f08c379a000000000000000000000000000000000000000000000000000000000815260040161043290611eb1565b60405180910390fd5b6000600560003373ffffffffffffffffffffffffffffffffffffffff1673ffffffffffffffffffffffffffffffffffffffff1681526020019081526020016000208190555060003373ffffffffffffffffffffffffffffffffffffffff16826040516104a690611f02565b60006040518083038185875af1925050503d80600081146104e3576040519150601f19603f3d011682016040523d82523d6000602084013e6104e8565b606091505b50509050806105405781600560003373ffffffffffffffffffffffffffffffffffffffff1673ffffffffffffffffffffffffffffffffffffffff16815260200190815260200160002081905550600092505050610595565b3373ffffffffffffffffffffffffffffffffffffffff167f3d97f39b86d061200a7834082f5926e58ec10fd85a9d6930f497729d5e6cc35c836040516105869190611c83565b60405180910390a26001925050505b6000600660006101000a81548160ff02191690831515021790555090565b600660009054906101000a900460ff1615610603576040517f08c379a00000000000000000000000000000000000000000000000000000000081526004016105fa90611e45565b60405180910390fd5b6001600660006101000a81548160ff021916908315150217905550600060016000858152602001908152602001600020905060006002600086815260200190815260200160002060003373ffffffffffffffffffffffffffffffffffffffff1673ffffffffffffffffffffffffffffffffffffffff168152602001908152602001600020905081600201544210156106d0576040517f08c379a00000000000000000000000000000000000000000000000000000000081526004016106c790611f63565b60405180910390fd5b81600301544210610716576040517f08c379a000000000000000000000000000000000000000000000000000000000815260040161070d90611fcf565b60405180910390fd5b8160040160009054906101000a900460ff1615610768576040517f08c379a000000000000000000000000000000000000000000000000000000000815260040161075f9061203b565b60405180910390fd5b60008160010154116107af576040517f08c379a00000000000000000000000000000000000000000000000000000000081526004016107a6906120a7565b60405180910390fd5b8060020160009054906101000a900460ff1615610801576040517f08c379a00000000000000000000000000000000000000000000000000000000081526004016107f890612113565b60405180910390fd5b60018160020160006101000a81548160ff0219169083151502179055506000848433604051602001610835939291906121bd565b6040516020818303038152906040528051906020012090506000826000015482148015610866575085836001015410155b80156108725750600086115b90508015610a3d5785836003018190555060008684600101546108959190612229565b905060008111156108f75780600560003373ffffffffffffffffffffffffffffffffffffffff1673ffffffffffffffffffffffffffffffffffffffff16815260200190815260200160002060008282546108ef919061225d565b925050819055505b84600501548711156109e05760008560050154111561098f578460050154600560008760040160019054906101000a900473ffffffffffffffffffffffffffffffffffffffff1673ffffffffffffffffffffffffffffffffffffffff1673ffffffffffffffffffffffffffffffffffffffff1681526020019081526020016000206000828254610987919061225d565b925050819055505b338560040160016101000a81548173ffffffffffffffffffffffffffffffffffffffff021916908373ffffffffffffffffffffffffffffffffffffffff160217905550868560050181905550610a37565b86600560003373ffffffffffffffffffffffffffffffffffffffff1673ffffffffffffffffffffffffffffffffffffffff1681526020019081526020016000206000828254610a2f919061225d565b925050819055505b50610abc565b8260010154600560008660000160009054906101000a900473ffffffffffffffffffffffffffffffffffffffff1673ffffffffffffffffffffffffffffffffffffffff1673ffffffffffffffffffffffffffffffffffffffff1681526020019081526020016000206000828254610ab4919061225d565b925050819055505b3373ffffffffffffffffffffffffffffffffffffffff16877f18e12105801f19bd11c1eab40db783709bb72a09bef3a44bf2062be4963922d98884604051610b05929190612291565b60405180910390a3505050506000600660006101000a81548160ff021916908315150217905550505050565b606060036000838152602001908152602001600020805480602002602001604051908101604052809291908181526020018280548015610bc657602002820191906000526020600020905b8160009054906101000a900473ffffffffffffffffffffffffffffffffffffffff1673ffffffffffffffffffffffffffffffffffffffff1681526020019060010190808311610b7c575b50505050509050919050565b60016020528060005260406000206000915090508060000160009054906101000a900473ffffffffffffffffffffffffffffffffffffffff16908060010154908060020154908060030154908060040160009054906101000a900460ff16908060040160019054906101000a900473ffffffffffffffffffffffffffffffffffffffff16908060050154905087565b60006001600084815260200190815260200160002090508060010154421015610cbf576040517f08c379a0000000000000000000000000000000000000000000000000000000008152600401610cb690612306565b60405180910390fd5b80600201544210610d05576040517f08c379a0000000000000000000000000000000000000000000000000000000008152600401610cfc90612372565b60405180910390fd5b8060040160009054906101000a900460ff1615610d57576040517f08c379a0000000000000000000000000000000000000000000000000000000008152600401610d4e9061203b565b60405180910390fd5b8060000160009054906101000a900473ffffffffffffffffffffffffffffffffffffffff1673ffffffffffffffffffffffffffffffffffffffff163373ffffffffffffffffffffffffffffffffffffffff1603610de9576040517f08c379a0000000000000000000000000000000000000000000000000000000008152600401610de0906123de565b60405180910390fd5b60003411610e2c576040517f08c379a0000000000000000000000000000000000000000000000000000000008152600401610e239061244a565b60405180910390fd5b60006002600085815260200190815260200160002060003373ffffffffffffffffffffffffffffffffffffffff1673ffffffffffffffffffffffffffffffffffffffff1681526020019081526020016000206001015414610ec2576040517f08c379a0000000000000000000000000000000000000000000000000000000008152600401610eb9906124b6565b60405180910390fd5b604051806080016040528083815260200134815260200160001515815260200160008152506002600085815260200190815260200160002060003373ffffffffffffffffffffffffffffffffffffffff1673ffffffffffffffffffffffffffffffffffffffff168152602001908152602001600020600082015181600001556020820151816001015560408201518160020160006101000a81548160ff021916908315150217905550606082015181600301559050506004600084815260200190815260200160002060003373ffffffffffffffffffffffffffffffffffffffff1673ffffffffffffffffffffffffffffffffffffffff16815260200190815260200160002060009054906101000a900460ff166110b85760016004600085815260200190815260200160002060003373ffffffffffffffffffffffffffffffffffffffff1673ffffffffffffffffffffffffffffffffffffffff16815260200190815260200160002060006101000a81548160ff02191690831515021790555060036000848152602001908152602001600020339080600181540180825580915050600190039060005260206000200160009091909190916101000a81548173ffffffffffffffffffffffffffffffffffffffff021916908373ffffffffffffffffffffffffffffffffffffffff1602179055505b3373ffffffffffffffffffffffffffffffffffffffff16837f0934ea4de468dcd0d9a335c5f97aa77955310c29631c93fbd01d95a00242ec4160405160405180910390a3505050565b6000808311611145576040517f08c379a000000000000000000000000000000000000000000000000000000000815260040161113c90612522565b60405180910390fd5b60008211611188576040517f08c379a000000000000000000000000000000000000000000000000000000000815260040161117f9061258e565b60405180910390fd5b60008081548092919061119a906125ae565b91905055506000549050600083426111b2919061225d565b90506040518060e001604052803373ffffffffffffffffffffffffffffffffffffffff16815260200142815260200182815260200184836111f3919061225d565b8152602001600015158152602001600073ffffffffffffffffffffffffffffffffffffffff16815260200160008152506001600084815260200190815260200160002060008201518160000160006101000a81548173ffffffffffffffffffffffffffffffffffffffff021916908373ffffffffffffffffffffffffffffffffffffffff16021790555060208201518160010155604082015181600201556060820151816003015560808201518160040160006101000a81548160ff02191690831515021790555060a08201518160040160016101000a81548173ffffffffffffffffffffffffffffffffffffffff021916908373ffffffffffffffffffffffffffffffffffffffff16021790555060c08201518160050155905050817f41ae6af53c618337e11f02d237cdf789cfac0e8576db22448b250d1596ca72873383868561133f919061225d565b60405161134e939291906125f6565b60405180910390a25092915050565b6000838383604051602001611374939291906121bd565b6040516020818303038152906040528051906020012090509392505050565b60056020528060005260406000206000915090505481565b60005481565b600060016000848152602001908152602001600020905060006002600085815260200190815260200160002060003373ffffffffffffffffffffffffffffffffffffffff1673ffffffffffffffffffffffffffffffffffffffff168152602001908152602001600020905081600201544210611462576040517f08c379a000000000000000000000000000000000000000000000000000000000815260040161145990612372565b60405180910390fd5b8160040160009054906101000a900460ff16156114b4576040517f08c379a00000000000000000000000000000000000000000000000000000000081526004016114ab9061203b565b60405180910390fd5b60008160010154116114fb576040517f08c379a00000000000000000000000000000000000000000000000000000000081526004016114f290612679565b60405180910390fd5b82816000018190555034816001016000828254611518919061225d565b925050819055503373ffffffffffffffffffffffffffffffffffffffff16847f0934ea4de468dcd0d9a335c5f97aa77955310c29631c93fbd01d95a00242ec4160405160405180910390a350505050565b600660009054906101000a900460ff16156115b9576040517f08c379a00000000000000000000000000000000000000000000000000000000081526004016115b090611e45565b60405180910390fd5b6001600660006101000a81548160ff02191690831515021790555060006001600083815260200190815260200160002090508060030154421015611632576040517f08c379a0000000000000000000000000000000000000000000000000000000008152600401611629906126e5565b60405180910390fd5b8060040160009054906101000a900460ff1615611684576040517f08c379a000000000000000000000000000000000000000000000000000000000815260040161167b90612751565b60405180910390fd5b60018160040160006101000a81548160ff021916908315150217905550817f3eae0bcf775d3e49f7b6f5e706018d4f6a8ec19bae2ef38d35eb722751d18b228260040160019054906101000a900473ffffffffffffffffffffffffffffffffffffffff1683600501546040516116fb929190612771565b60405180910390a2600081600501541115611836576000816005015490506000826005018190555060008260000160009054906101000a900473ffffffffffffffffffffffffffffffffffffffff1673ffffffffffffffffffffffffffffffffffffffff168260405161176d90611f02565b60006040518083038185875af1925050503d80600081146117aa576040519150601f19603f3d011682016040523d82523d6000602084013e6117af565b606091505b50509050806118335781600560008560000160009054906101000a900473ffffffffffffffffffffffffffffffffffffffff1673ffffffffffffffffffffffffffffffffffffffff1673ffffffffffffffffffffffffffffffffffffffff168152602001908152602001600020600082825461182b919061225d565b925050819055505b50505b506000600660006101000a81548160ff02191690831515021790555050565b6002602052816000526040600020602052806000526040600020600091509150508060000154908060010154908060020160009054906101000a900460ff16908060030154905084565b600082825260208201905092915050565b7f446972656374206465706f73697473206e6f7420616363657074656400000000600082015250565b60006118e6601c8361189f565b91506118f1826118b0565b602082019050919050565b60006020820190508181036000830152611915816118d9565b9050919050565b60008115159050919050565b6119318161191c565b82525050565b600060208201905061194c6000830184611928565b92915050565b600080fd5b6000819050919050565b61196a81611957565b811461197557600080fd5b50565b60008135905061198781611961565b92915050565b6000819050919050565b6119a08161198d565b81146119ab57600080fd5b50565b6000813590506119bd81611997565b92915050565b6000806000606084860312156119dc576119db611952565b5b60006119ea86828701611978565b93505060206119fb86828701611978565b9250506040611a0c868287016119ae565b9150509250925092565b600060208284031215611a2c57611a2b611952565b5b6000611a3a84828501611978565b91505092915050565b600081519050919050565b600082825260208201905092915050565b6000819050602082019050919050565b600073ffffffffffffffffffffffffffffffffffffffff82169050919050565b6000611a9a82611a6f565b9050919050565b611aaa81611a8f565b82525050565b6000611abc8383611aa1565b60208301905092915050565b6000602082019050919050565b6000611ae082611a43565b611aea8185611a4e565b9350611af583611a5f565b8060005b83811015611b26578151611b0d8882611ab0565b9750611b1883611ac8565b925050600181019050611af9565b5085935050505092915050565b60006020820190508181036000830152611b4d8184611ad5565b905092915050565b6000611b6082611a6f565b9050919050565b611b7081611b55565b82525050565b611b7f81611957565b82525050565b611b8e81611a8f565b82525050565b600060e082019050611ba9600083018a611b67565b611bb66020830189611b76565b611bc36040830188611b76565b611bd06060830187611b76565b611bdd6080830186611928565b611bea60a0830185611b85565b611bf760c0830184611b76565b98975050505050505050565b60008060408385031215611c1a57611c19611952565b5b6000611c2885828601611978565b9250506020611c39858286016119ae565b9150509250929050565b60008060408385031215611c5a57611c59611952565b5b6000611c6885828601611978565b9250506020611c7985828601611978565b9150509250929050565b6000602082019050611c986000830184611b76565b92915050565b611ca781611a8f565b8114611cb257600080fd5b50565b600081359050611cc481611c9e565b92915050565b600080600060608486031215611ce357611ce2611952565b5b6000611cf186828701611978565b9350506020611d02868287016119ae565b9250506040611d1386828701611cb5565b9150509250925092565b611d268161198d565b82525050565b6000602082019050611d416000830184611d1d565b92915050565b600060208284031215611d5d57611d5c611952565b5b6000611d6b84828501611cb5565b91505092915050565b60008060408385031215611d8b57611d8a611952565b5b6000611d9985828601611978565b9250506020611daa85828601611cb5565b9150509250929050565b6000608082019050611dc96000830187611d1d565b611dd66020830186611b76565b611de36040830185611928565b611df06060830184611b76565b95945050505050565b7f5265656e7472616e742063616c6c000000000000000000000000000000000000600082015250565b6000611e2f600e8361189f565b9150611e3a82611df9565b602082019050919050565b60006020820190508181036000830152611e5e81611e22565b9050919050565b7f4e6f7468696e6720746f20776974686472617700000000000000000000000000600082015250565b6000611e9b60138361189f565b9150611ea682611e65565b602082019050919050565b60006020820190508181036000830152611eca81611e8e565b9050919050565b600081905092915050565b50565b6000611eec600083611ed1565b9150611ef782611edc565b600082019050919050565b6000611f0d82611edf565b9150819050919050565b7f52657665616c206e6f74206f70656e2079657400000000000000000000000000600082015250565b6000611f4d60138361189f565b9150611f5882611f17565b602082019050919050565b60006020820190508181036000830152611f7c81611f40565b9050919050565b7f52657665616c207068617365206f766572000000000000000000000000000000600082015250565b6000611fb960118361189f565b9150611fc482611f83565b602082019050919050565b60006020820190508181036000830152611fe881611fac565b9050919050565b7f41756374696f6e2066696e616c697a6564000000000000000000000000000000600082015250565b600061202560118361189f565b915061203082611fef565b602082019050919050565b6000602082019050818103600083015261205481612018565b9050919050565b7f4e6f20636f6d6d69746d656e7420666f756e6400000000000000000000000000600082015250565b600061209160138361189f565b915061209c8261205b565b602082019050919050565b600060208201905081810360008301526120c081612084565b9050919050565b7f416c72656164792072657665616c656400000000000000000000000000000000600082015250565b60006120fd60108361189f565b9150612108826120c7565b602082019050919050565b6000602082019050818103600083015261212c816120f0565b9050919050565b6000819050919050565b61214e61214982611957565b612133565b82525050565b6000819050919050565b61216f61216a8261198d565b612154565b82525050565b60008160601b9050919050565b600061218d82612175565b9050919050565b600061219f82612182565b9050919050565b6121b76121b282611a8f565b612194565b82525050565b60006121c9828661213d565b6020820191506121d9828561215e565b6020820191506121e982846121a6565b601482019150819050949350505050565b7f4e487b7100000000000000000000000000000000000000000000000000000000600052601160045260246000fd5b600061223482611957565b915061223f83611957565b9250828203905081811115612257576122566121fa565b5b92915050565b600061226882611957565b915061227383611957565b925082820190508082111561228b5761228a6121fa565b5b92915050565b60006040820190506122a66000830185611b76565b6122b36020830184611928565b9392505050565b7f4e6f742073746172746564000000000000000000000000000000000000000000600082015250565b60006122f0600b8361189f565b91506122fb826122ba565b602082019050919050565b6000602082019050818103600083015261231f816122e3565b9050919050565b7f42696464696e6720636c6f736564000000000000000000000000000000000000600082015250565b600061235c600e8361189f565b915061236782612326565b602082019050919050565b6000602082019050818103600083015261238b8161234f565b9050919050565b7f53656c6c65722063616e6e6f7420626964000000000000000000000000000000600082015250565b60006123c860118361189f565b91506123d382612392565b602082019050919050565b600060208201905081810360008301526123f7816123bb565b9050919050565b7f426f6e6420726571756972656400000000000000000000000000000000000000600082015250565b6000612434600d8361189f565b915061243f826123fe565b602082019050919050565b6000602082019050818103600083015261246381612427565b9050919050565b7f416c726561647920636f6d6d6974746564000000000000000000000000000000600082015250565b60006124a060118361189f565b91506124ab8261246a565b602082019050919050565b600060208201905081810360008301526124cf81612493565b9050919050565b7f496e76616c69642062696464696e67206475726174696f6e0000000000000000600082015250565b600061250c60188361189f565b9150612517826124d6565b602082019050919050565b6000602082019050818103600083015261253b816124ff565b9050919050565b7f496e76616c69642072657665616c206475726174696f6e000000000000000000600082015250565b600061257860178361189f565b915061258382612542565b602082019050919050565b600060208201905081810360008301526125a78161256b565b9050919050565b60006125b982611957565b91507fffffffffffffffffffffffffffffffffffffffffffffffffffffffffffffffff82036125eb576125ea6121fa565b5b600182019050919050565b600060608201905061260b6000830186611b85565b6126186020830185611b76565b6126256040830184611b76565b949350505050565b7f4e6f206578697374696e6720636f6d6d69746d656e7400000000000000000000600082015250565b600061266360168361189f565b915061266e8261262d565b602082019050919050565b6000602082019050818103600083015261269281612656565b9050919050565b7f52657665616c207068617365206e6f74206f7665720000000000000000000000600082015250565b60006126cf60158361189f565b91506126da82612699565b602082019050919050565b600060208201905081810360008301526126fe816126c2565b9050919050565b7f416c72656164792066696e616c697a6564000000000000000000000000000000600082015250565b600061273b60118361189f565b915061274682612705565b602082019050919050565b6000602082019050818103600083015261276a8161272e565b9050919050565b60006040820190506127866000830185611b85565b6127936020830184611b76565b939250505056fea26469706673582212206c07a3d5d3201991e0a08d853d92a825b4b7507c0064415262e164957cc9168364736f6c63430008110033",
  "immutableReferences": {},
  "source": "// SPDX-License-Identifier: MIT\npragma solidity ^0.8.17;\n\ncontract SecureAuction {\n\n    struct Auction {\n        address payable seller;\n        uint startTime;\n        uint endTime;\n        bool ended;\n        address highestBidder;\n        uint highestBid;\n        uint minIncrement;\n        uint extensionTime;\n        uint maxBid;\n    }\n\n    uint public auctionCount;\n    mapping(uint => Auction) public auctions;\n    mapping(address => uint) public pendingReturns;\n    mapping(address => bool) private hasPendingRecorded;\n    address[] public pendingParties;\n\n    bool private locked;\n\n    event AuctionCreated(uint auctionId, address seller);\n    event HighestBidIncreased(uint auctionId, address bidder, uint amount);\n    event AuctionExtended(uint auctionId, uint newEndTime);\n    event AuctionEnded(uint auctionId, address winner, uint amount);\n    event AuctionCancelled(uint auctionId);\n    event Withdrawn(address indexed who, uint amount);\n    event WithdrawFailed(address indexed who, uint amount);\n\n    modifier noReentrant() {\n        require(!locked, \"Reentrant call\");\n        locked = true;\n        _;\n        locked = false;\n    }\n\n    function createAuction(\n        uint _biddingTime,\n        uint _minIncrement,\n        uint _extensionTime,\n        uint _maxBid\n    ) external {\n        require(_biddingTime > 0, \"Invalid bidding time\");\n        require(_minIncrement > 0, \"Invalid min increment\");\n\n        auctionCount++;\n\n        auctions[auctionCount] = Auction({\n            seller: payable(msg.sender),\n            startTime: block.timestamp,\n            endTime: block.timestamp + _biddingTime,\n            ended: false,\n            highestBidder: address(0),\n            highestBid: 0,\n            minIncrement: _minIncrement,\n            extensionTime: _extensionTime,\n            maxBid: _maxBid\n        });\n\n        emit AuctionCreated(auctionCount, msg.sender);\n    }\n\n    function bid(uint auctionId) external payable {\n        Auction storage auction = auctions[auctionId];\n\n        require(block.timestamp >= auction.startTime, \"Not started\");\n        require(block.timestamp < auction.endTime, \"Auction ended\");\n        require(!auction.ended, \"Already ended\");\n        require(msg.sender != auction.seller, \"Seller cannot bid\");\n\n        uint required = auction.highestBid + auction.minIncrement;\n        require(msg.value >= required, \"Bid below min increment\");\n\n        if (auction.maxBid != 0) {\n            require(msg.value <= auction.maxBid, \"Above maxBid\");\n        }\n\n        if (auction.highestBid != 0) {\n            pendingReturns[auction.highestBidder] += auction.highestBid;\n\n            if (!hasPendingRecorded[auction.highestBidder]) {\n                hasPendingRecorded[auction.highestBidder] = true;\n                pendingParties.push(auction.highestBidder);\n            }\n        }\n\n        auction.highestBidder = msg.sender;\n        auction.highestBid = msg.value;\n\n        if (auction.endTime - block.timestamp < auction.extensionTime) {\n            auction.endTime += auction.extensionTime;\n            emit AuctionExtended(auctionId, auction.endTime);\n        }\n\n        emit HighestBidIncreased(auctionId, msg.sender, msg.value);\n    }\n\n    function endAuction(uint auctionId) external noReentrant {\n        Auction storage auction = auctions[auctionId];\n\n        require(msg.sender == auction.seller, \"Only seller\");\n        require(block.timestamp >= auction.endTime, \"Not ended yet\");\n        require(!auction.ended, \"Already ended\");\n\n        auction.ended = true;\n\n        emit AuctionEnded(auctionId, auction.highestBidder, auction.highestBid);\n\n        uint amount = auction.highestBid;\n        auction.highestBid = 0;\n\n        if (amount > 0) {\n            (bool success, ) = auction.seller.call{value: amount}(\"\");\n\n            if (!success) {\n                pendingReturns[auction.seller] += amount;\n\n                if (!hasPendingRecorded[auction.seller]) {\n                    hasPendingRecorded[auction.seller] = true;\n                    pendingParties.push(auction.seller);\n                }\n            }\n        }\n    }\n\n    function cancelAuction(uint auctionId) external noReentrant {\n        Auction storage auction = auctions[auctionId];\n\n        require(msg.sender == auction.seller, \"Only seller\");\n        require(!auction.ended, \"Already ended\");\n\n        auction.ended = true;\n\n        emit AuctionCancelled(auctionId);\n\n        if (auction.highestBid != 0) {\n            pendingReturns[auction.highestBidder] += auction.highestBid;\n\n            if (!hasPendingRecorded[auction.highestBidder]) {\n                hasPendingRecorded[auction.highestBidder] = true;\n                pendingParties.push(auction.highestBidder);\n            }\n\n            auction.highestBid = 0;\n        }\n    }\n\n    function withdraw() external noReentrant returns (bool) {\n        uint amount = pendingReturns[msg.sender];\n        require(amount > 0, \"No funds\");\n\n        pendingReturns[msg.sender] = 0;\n\n        (bool success, ) = payable(msg.sender).call{value: amount}(\"\");\n\n        if (!success) {\n            pendingReturns[msg.sender] = amount;\n            emit WithdrawFailed(msg.sender, amount);\n            return false;\n        }\n\n        emit Withdrawn(msg.sender, amount);\n        return true;\n    }\n\n    function getPendingParties() external view returns (address[] memory) {\n        return pendingParties;\n    }\n\n    receive() external payable {\n        revert(\"Direct deposits not accepted\");\n    }\n}\n\ncontract SealedBidAuction {\n\n    struct SealedAuction {\n        address payable seller;\n        uint startTime;\n        uint biddingEnd;\n        uint revealEnd;\n        bool finalized;\n        address winner;\n        uint winningBid;\n    }\n\n    struct BidCommitment {\n        bytes32 commitment;\n        uint bond;\n        bool revealed;\n        uint revealedAmount;\n    }\n\n    uint public sealedAuctionCount;\n\n    mapping(uint => SealedAuction) public sealedAuctions;\n    mapping(uint => mapping(address => BidCommitment)) public commitments;\n    mapping(uint => address[]) private bidders;\n    mapping(uint => mapping(address => bool)) private hasBid;\n    mapping(address => uint) public pendingRefunds;\n\n    bool private locked;\n\n    event SealedAuctionCreated(uint indexed auctionId, address seller, uint biddingEnd, uint revealEnd);\n    event BidCommitted(uint indexed auctionId, address indexed bidder);\n    event BidRevealed(uint indexed auctionId, address indexed bidder, uint amount, bool valid);\n    event SealedAuctionFinalized(uint indexed auctionId, address winner, uint amount);\n    event RefundWithdrawn(address indexed who, uint amount);\n\n    modifier noReentrant() {\n        require(!locked, \"Reentrant call\");\n        locked = true;\n        _;\n        locked = false;\n    }\n\n    function makeCommitment(\n        uint amount,\n        bytes32 nonce,\n        address bidder\n    ) external pure returns (bytes32) {\n        return keccak256(abi.encodePacked(amount, nonce, bidder));\n    }\n\n    function createSealedAuction(\n        uint _biddingDuration,\n        uint _revealDuration\n    ) external returns (uint auctionId) {\n        require(_biddingDuration > 0, \"Invalid bidding duration\");\n        require(_revealDuration > 0, \"Invalid reveal duration\");\n\n        sealedAuctionCount++;\n        auctionId = sealedAuctionCount;\n\n        uint biddingEnd_ = block.timestamp + _biddingDuration;\n\n        sealedAuctions[auctionId] = SealedAuction({\n            seller: payable(msg.sender),\n            startTime: block.timestamp,\n            biddingEnd: biddingEnd_,\n            revealEnd: biddingEnd_ + _revealDuration,\n            finalized: false,\n            winner: address(0),\n            winningBid: 0\n        });\n\n        emit SealedAuctionCreated(auctionId, msg.sender, biddingEnd_, biddingEnd_ + _revealDuration);\n    }\n\n    function commitBid(uint auctionId, bytes32 commitment) external payable {\n        SealedAuction storage sa = sealedAuctions[auctionId];\n\n        require(block.timestamp >= sa.startTime, \"Not started\");\n        require(block.timestamp < sa.biddingEnd, \"Bidding closed\");\n        require(!sa.finalized, \"Auction finalized\");\n        require(msg.sender != sa.seller, \"Seller cannot bid\");\n        require(msg.value > 0, \"Bond required\");\n        require(commitments[auctionId][msg.sender].bond == 0, \"Already committed\");\n\n        commitments[auctionId][msg.sender] = BidCommitment({\n            commitment: commitment,\n            bond: msg.value,\n            revealed: false,\n            revealedAmount: 0\n        });\n\n        if (!hasBid[auctionId][msg.sender]) {\n            hasBid[auctionId][msg.sender] = true;\n            bidders[auctionId].push(msg.sender);\n        }\n\n        emit BidCommitted(auctionId, msg.sender);\n    }\n\n    function updateBid(uint auctionId, bytes32 newCommitment) external payable {\n        SealedAuction storage sa = sealedAuctions[auctionId];\n        BidCommitment storage bc = commitments[auctionId][msg.sender];\n\n        require(block.timestamp < sa.biddingEnd, \"Bidding closed\");\n        require(!sa.finalized, \"Auction finalized\");\n        require(bc.bond > 0, \"No existing commitment\");\n\n        bc.commitment = newCommitment;\n        bc.bond += msg.value;\n\n        emit BidCommitted(auctionId, msg.sender);\n    }\n\n    function revealBid(uint auctionId, uint amount, bytes32 nonce) external noReentrant {\n        SealedAuction storage sa = sealedAuctions[auctionId];\n        BidCommitment storage bc = commitments[auctionId][msg.sender];\n\n        require(block.timestamp >= sa.biddingEnd, \"Reveal not open yet\");\n        require(block.timestamp < sa.revealEnd, \"Reveal phase over\");\n        require(!sa.finalized, \"Auction finalized\");\n        require(bc.bond > 0, \"No commitment found\");\n        require(!bc.revealed, \"Already revealed\");\n\n        bc.revealed = true;\n\n        bytes32 expected = keccak256(abi.encodePacked(amount, nonce, msg.sender));\n        bool valid = (expected == bc.commitment) && (bc.bond >= amount) && (amount > 0);\n\n        if (valid) {\n            bc.revealedAmount = amount;\n\n            uint excess = bc.bond - amount;\n            if (excess > 0) {\n                pendingRefunds[msg.sender] += excess;\n            }\n\n            if (amount > sa.winningBid) {\n                if (sa.winningBid > 0) {\n                    pendingRefunds[sa.winner] += sa.winningBid;\n                }\n                sa.winner = msg.sender;\n                sa.winningBid = amount;\n            } else {\n                pendingRefunds[msg.sender] += amount;\n            }\n        } else {\n            pendingRefunds[sa.seller] += bc.bond;\n        }\n\n        emit BidRevealed(auctionId, msg.sender, amount, valid);\n    }\n\n    function finalizeAuction(uint auctionId) external noReentrant {\n        SealedAuction storage sa = sealedAuctions[auctionId];\n\n        require(block.timestamp >= sa.revealEnd, \"Reveal phase not over\");\n        require(!sa.finalized, \"Already finalized\");\n\n        sa.finalized = true;\n\n        emit SealedAuctionFinalized(auctionId, sa.winner, sa.winningBid);\n\n        if (sa.winningBid > 0) {\n            uint amount = sa.winningBid;\n            sa.winningBid = 0;\n\n            (bool success, ) = sa.seller.call{value: amount}(\"\");\n            if (!success) {\n                pendingRefunds[sa.seller] += amount;\n            }\n        }\n    }\n\n    function withdrawRefund() external noReentrant returns (bool) {\n        uint amount = pendingRefunds[msg.sender];\n        require(amount > 0, \"Nothing to withdraw\");\n\n        pendingRefunds[msg.sender] = 0;\n        (bool success, ) = payable(msg.sender).call{value: amount}(\"\");\n\n        if (!success) {\n            pendingRefunds[msg.sender] = amount;\n            return false;\n        }\n\n        emit RefundWithdrawn(msg.sender, amount);\n        return true;\n    }\n\n    function getBidders(uint auctionId) external view returns (address[] memory) {\n        return bidders[auctionId];\n    }\n\n    receive() external payable {\n        revert(\"Direct deposits not accepted\");\n    }\n}",
  "sourcePath": "c:\\Users\\kavin\\Desktop\\Bchain\\bidding_system\\smart-contract\\contracts\\SecureAuction.sol",
  "compiler": {
    "name": "solc",
    "version": "0.8.17+commit.8df45f5f.Emscripten.clang"
  },
  "schemaVersion": "3.4.16",
  "updatedAt": "2026-04-12T16:17:33.041Z",
  "networkType": "ethereum",
  "devdoc": {
    "kind": "dev",
    "methods": {},
    "version": 1
  },
  "userdoc": {
    "kind": "user",
    "methods": {},
    "version": 1
  }
}