{
  "contractName": "MultiAuction",
  "abi": [
    {
      "anonymous": false,
      "inputs": [
        {
          "indexed": true,
          "internalType": "uint256",
          "name": "auctionId",
          "type": "uint256"
        }
      ],
      "name": "AuctionCancelled",
      "type": "event"
    },
    {
      "anonymous": false,
      "inputs": [
        {
          "indexed": true,
          "internalType": "uint256",
          "name": "auctionId",
          "type": "uint256"
        },
        {
          "indexed": true,
          "internalType": "address",
          "name": "seller",
          "type": "address"
        },
        {
          "indexed": false,
          "internalType": "string",
          "name": "itemName",
          "type": "string"
        }
      ],
      "name": "AuctionCreated",
      "type": "event"
    },
    {
      "anonymous": false,
      "inputs": [
        {
          "indexed": true,
          "internalType": "uint256",
          "name": "auctionId",
          "type": "uint256"
        },
        {
          "indexed": false,
          "internalType": "address",
          "name": "winner",
          "type": "address"
        },
        {
          "indexed": false,
          "internalType": "uint256",
          "name": "amount",
          "type": "uint256"
        }
      ],
      "name": "AuctionEnded",
      "type": "event"
    },
    {
      "anonymous": false,
      "inputs": [
        {
          "indexed": true,
          "internalType": "uint256",
          "name": "auctionId",
          "type": "uint256"
        },
        {
          "indexed": false,
          "internalType": "uint256",
          "name": "newEndTime",
          "type": "uint256"
        }
      ],
      "name": "AuctionExtended",
      "type": "event"
    },
    {
      "anonymous": false,
      "inputs": [
        {
          "indexed": true,
          "internalType": "uint256",
          "name": "auctionId",
          "type": "uint256"
        },
        {
          "indexed": true,
          "internalType": "address",
          "name": "bidder",
          "type": "address"
        },
        {
          "indexed": false,
          "internalType": "uint256",
          "name": "amount",
          "type": "uint256"
        }
      ],
      "name": "HighestBidIncreased",
      "type": "event"
    },
    {
      "anonymous": false,
      "inputs": [
        {
          "indexed": true,
          "internalType": "uint256",
          "name": "auctionId",
          "type": "uint256"
        },
        {
          "indexed": true,
          "internalType": "address",
          "name": "who",
          "type": "address"
        },
        {
          "indexed": false,
          "internalType": "uint256",
          "name": "amount",
          "type": "uint256"
        }
      ],
      "name": "Withdrawn",
      "type": "event"
    },
    {
      "inputs": [],
      "name": "auctionCounter",
      "outputs": [
        {
          "internalType": "uint256",
          "name": "",
          "type": "uint256"
        }
      ],
      "stateMutability": "view",
      "type": "function"
    },
    {
      "inputs": [
        {
          "internalType": "uint256",
          "name": "",
          "type": "uint256"
        }
      ],
      "name": "auctions",
      "outputs": [
        {
          "internalType": "address payable",
          "name": "seller",
          "type": "address"
        },
        {
          "internalType": "uint256",
          "name": "startTime",
          "type": "uint256"
        },
        {
          "internalType": "uint256",
          "name": "endTime",
          "type": "uint256"
        },
        {
          "internalType": "bool",
          "name": "ended",
          "type": "bool"
        },
        {
          "internalType": "bool",
          "name": "auctionStarted",
          "type": "bool"
        },
        {
          "internalType": "address",
          "name": "highestBidder",
          "type": "address"
        },
        {
          "internalType": "uint256",
          "name": "highestBid",
          "type": "uint256"
        },
        {
          "internalType": "uint256",
          "name": "minIncrement",
          "type": "uint256"
        },
        {
          "internalType": "uint256",
          "name": "extensionTime",
          "type": "uint256"
        },
        {
          "internalType": "uint256",
          "name": "maxBid",
          "type": "uint256"
        },
        {
          "internalType": "string",
          "name": "itemName",
          "type": "string"
        },
        {
          "internalType": "string",
          "name": "imageUrl",
          "type": "string"
        }
      ],
      "stateMutability": "view",
      "type": "function"
    },
    {
      "inputs": [
        {
          "internalType": "uint256",
          "name": "",
          "type": "uint256"
        },
        {
          "internalType": "address",
          "name": "",
          "type": "address"
        }
      ],
      "name": "pendingReturns",
      "outputs": [
        {
          "internalType": "uint256",
          "name": "",
          "type": "uint256"
        }
      ],
      "stateMutability": "view",
      "type": "function"
    },
    {
      "inputs": [
        {
          "internalType": "string",
          "name": "_itemName",
          "type": "string"
        },
        {
          "internalType": "string",
          "name": "_imageUrl",
          "type": "string"
        },
        {
          "internalType": "uint256",
          "name": "_biddingTime",
          "type": "uint256"
        },
        {
          "internalType": "uint256",
          "name": "_minIncrement",
          "type": "uint256"
        },
        {
          "internalType": "uint256",
          "name": "_extensionTime",
          "type": "uint256"
        },
        {
          "internalType": "uint256",
          "name": "_maxBid",
          "type": "uint256"
        }
      ],
      "name": "createAuction",
      "outputs": [
        {
          "internalType": "uint256",
          "name": "",
          "type": "uint256"
        }
      ],
      "stateMutability": "nonpayable",
      "type": "function"
    },
    {
      "inputs": [
        {
          "internalType": "uint256",
          "name": "_auctionId",
          "type": "uint256"
        }
      ],
      "name": "bid",
      "outputs": [],
      "stateMutability": "payable",
      "type": "function"
    },
    {
      "inputs": [
        {
          "internalType": "uint256",
          "name": "_auctionId",
          "type": "uint256"
        }
      ],
      "name": "withdraw",
      "outputs": [
        {
          "internalType": "bool",
          "name": "",
          "type": "bool"
        }
      ],
      "stateMutability": "nonpayable",
      "type": "function"
    },
    {
      "inputs": [
        {
          "internalType": "uint256",
          "name": "_auctionId",
          "type": "uint256"
        }
      ],
      "name": "endAuction",
      "outputs": [],
      "stateMutability": "nonpayable",
      "type": "function"
    },
    {
      "inputs": [
        {
          "internalType": "uint256",
          "name": "_auctionId",
          "type": "uint256"
        }
      ],
      "name": "cancelAuction",
      "outputs": [],
      "stateMutability": "nonpayable",
      "type": "function"
    },
    {
      "inputs": [
        {
          "internalType": "uint256",
          "name": "_auctionId",
          "type": "uint256"
        }
      ],
      "name": "getAuction",
      "outputs": [
        {
          "internalType": "address",
          "name": "seller",
          "type": "address"
        },
        {
          "internalType": "string",
          "name": "itemName",
          "type": "string"
        },
        {
          "internalType": "string",
          "name": "imageUrl",
          "type": "string"
        },
        {
          "internalType": "uint256",
          "name": "endTime",
          "type": "uint256"
        },
        {
          "internalType": "address",
          "name": "highestBidder",
          "type": "address"
        },
        {
          "internalType": "uint256",
          "name": "highestBid",
          "type": "uint256"
        },
        {
          "internalType": "bool",
          "name": "ended",
          "type": "bool"
        },
        {
          "internalType": "bool",
          "name": "auctionStarted",
          "type": "bool"
        }
      ],
      "stateMutability": "view",
      "type": "function"
    },
    {
      "inputs": [],
      "name": "getActiveAuctionsCount",
      "outputs": [
        {
          "internalType": "uint256",
          "name": "",
          "type": "uint256"
        }
      ],
      "stateMutability": "view",
      "type": "function"
    }
  ],
  "bytecode": "0x608060405234801561001057600080fd5b506124e8806100206000396000f3fe6080604052600436106100915760003560e01c80638ddac1ef116100595780638ddac1ef146101b857806396b5a755146101f5578063a7e766441461021e578063b9a2de3a14610249578063c6315e601461027257610091565b80632e1a7d4d14610096578063454a2ab3146100d3578063571a26a0146100ef57806378bd79351461013757806383575dd31461017b575b600080fd5b3480156100a257600080fd5b506100bd60048036038101906100b8919061161b565b61029d565b6040516100ca9190611663565b60405180910390f35b6100ed60048036038101906100e8919061161b565b61053f565b005b3480156100fb57600080fd5b506101166004803603810190610111919061161b565b6108e1565b60405161012e9c9b9a9998979695949392919061177f565b60405180910390f35b34801561014357600080fd5b5061015e6004803603810190610159919061161b565b610aab565b604051610172989796959493929190611847565b60405180910390f35b34801561018757600080fd5b506101a2600480360381019061019d9190611a08565b610c82565b6040516101af9190611acd565b60405180910390f35b3480156101c457600080fd5b506101df60048036038101906101da9190611b14565b610e71565b6040516101ec9190611acd565b60405180910390f35b34801561020157600080fd5b5061021c6004803603810190610217919061161b565b610e96565b005b34801561022a57600080fd5b50610233611132565b6040516102409190611acd565b60405180910390f35b34801561025557600080fd5b50610270600480360381019061026b919061161b565b611138565b005b34801561027e57600080fd5b5061028761153d565b6040516102949190611acd565b60405180910390f35b6000600360009054906101000a900460ff16156102ef576040517f08c379a00000000000000000000000000000000000000000000000000000000081526004016102e690611ba0565b60405180910390fd5b6001600360006101000a81548160ff02191690831515021790555060006002600084815260200190815260200160002060003373ffffffffffffffffffffffffffffffffffffffff1673ffffffffffffffffffffffffffffffffffffffff168152602001908152602001600020549050600081116103a2576040517f08c379a000000000000000000000000000000000000000000000000000000000815260040161039990611c0c565b60405180910390fd5b60006002600085815260200190815260200160002060003373ffffffffffffffffffffffffffffffffffffffff1673ffffffffffffffffffffffffffffffffffffffff1681526020019081526020016000208190555060003373ffffffffffffffffffffffffffffffffffffffff168260405161041e90611c5d565b60006040518083038185875af1925050503d806000811461045b576040519150601f19603f3d011682016040523d82523d6000602084013e610460565b606091505b50509050806104c957816002600086815260200190815260200160002060003373ffffffffffffffffffffffffffffffffffffffff1673ffffffffffffffffffffffffffffffffffffffff1681526020019081526020016000208190555060009250505061051f565b3373ffffffffffffffffffffffffffffffffffffffff16847fcf7d23a3cbe4e8b36ff82fd1b05b1b17373dc7804b4ebbd6e2356716ef202372846040516105109190611acd565b60405180910390a36001925050505b6000600360006101000a81548160ff021916908315150217905550919050565b60006001600083815260200190815260200160002090508060030160019054906101000a900460ff166105a7576040517f08c379a000000000000000000000000000000000000000000000000000000000815260040161059e90611cbe565b60405180910390fd5b806002015442106105ed576040517f08c379a00000000000000000000000000000000000000000000000000000000081526004016105e490611d2a565b60405180910390fd5b8060000160009054906101000a900473ffffffffffffffffffffffffffffffffffffffff1673ffffffffffffffffffffffffffffffffffffffff163373ffffffffffffffffffffffffffffffffffffffff160361067f576040517f08c379a000000000000000000000000000000000000000000000000000000000815260040161067690611d96565b60405180910390fd5b6000816005015482600401546106959190611de5565b9050803410156106da576040517f08c379a00000000000000000000000000000000000000000000000000000000081526004016106d190611e65565b60405180910390fd5b600082600701541461072e57816007015434111561072d576040517f08c379a000000000000000000000000000000000000000000000000000000000815260040161072490611ed1565b60405180910390fd5b5b60008260040154146107ca5781600401546002600085815260200190815260200160002060008460030160029054906101000a900473ffffffffffffffffffffffffffffffffffffffff1673ffffffffffffffffffffffffffffffffffffffff1673ffffffffffffffffffffffffffffffffffffffff16815260200190815260200160002060008282546107c29190611de5565b925050819055505b338260030160026101000a81548173ffffffffffffffffffffffffffffffffffffffff021916908373ffffffffffffffffffffffffffffffffffffffff160217905550348260040181905550816006015442836002015461082b9190611ef1565b101561088d5781600601548260020160008282546108499190611de5565b92505081905550827f6e912a3a9105bdd2af817ba5adc14e6c127c1035b5b648faa29ca0d58ab8ff4e83600201546040516108849190611acd565b60405180910390a25b3373ffffffffffffffffffffffffffffffffffffffff16837fda0a18da71d8ebd145966339a728fc0d8ccc07c22870d561890d823c515dda6b346040516108d49190611acd565b60405180910390a3505050565b60016020528060005260406000206000915090508060000160009054906101000a900473ffffffffffffffffffffffffffffffffffffffff16908060010154908060020154908060030160009054906101000a900460ff16908060030160019054906101000a900460ff16908060030160029054906101000a900473ffffffffffffffffffffffffffffffffffffffff169080600401549080600501549080600601549080600701549080600801805461099a90611f54565b80601f01602080910402602001604051908101604052809291908181526020018280546109c690611f54565b8015610a135780601f106109e857610100808354040283529160200191610a13565b820191906000526020600020905b8154815290600101906020018083116109f657829003601f168201915b505050505090806009018054610a2890611f54565b80601f0160208091040260200160405190810160405280929190818152602001828054610a5490611f54565b8015610aa15780601f10610a7657610100808354040283529160200191610aa1565b820191906000526020600020905b815481529060010190602001808311610a8457829003601f168201915b505050505090508c565b6000606080600080600080600080600160008b815260200190815260200160002090508060000160009054906101000a900473ffffffffffffffffffffffffffffffffffffffff16816008018260090183600201548460030160029054906101000a900473ffffffffffffffffffffffffffffffffffffffff1685600401548660030160009054906101000a900460ff168760030160019054906101000a900460ff16868054610b5a90611f54565b80601f0160208091040260200160405190810160405280929190818152602001828054610b8690611f54565b8015610bd35780601f10610ba857610100808354040283529160200191610bd3565b820191906000526020600020905b815481529060010190602001808311610bb657829003601f168201915b50505050509650858054610be690611f54565b80601f0160208091040260200160405190810160405280929190818152602001828054610c1290611f54565b8015610c5f5780601f10610c3457610100808354040283529160200191610c5f565b820191906000526020600020905b815481529060010190602001808311610c4257829003601f168201915b505050505095509850985098509850985098509850985050919395975091939597565b6000808511610cc6576040517f08c379a0000000000000000000000000000000000000000000000000000000008152600401610cbd90611fd1565b60405180910390fd5b60008411610d09576040517f08c379a0000000000000000000000000000000000000000000000000000000008152600401610d009061203d565b60405180910390fd5b6000806000815480929190610d1d9061205d565b9190505590506000600160008381526020019081526020016000209050338160000160006101000a81548173ffffffffffffffffffffffffffffffffffffffff021916908373ffffffffffffffffffffffffffffffffffffffff16021790555088816008019081610d8e9190612251565b5087816009019081610da09190612251565b504281600101819055508642610db69190611de5565b816002018190555085816005018190555084816006018190555083816007018190555060018160030160016101000a81548160ff02191690831515021790555060008160030160006101000a81548160ff0219169083151502179055503373ffffffffffffffffffffffffffffffffffffffff16827fb928fabb4287b33fb3d59644b08cfd2e726532740f8ba9d42f17ece23fbff37f8b604051610e5a9190612323565b60405180910390a381925050509695505050505050565b6002602052816000526040600020602052806000526040600020600091509150505481565b806001600082815260200190815260200160002060000160009054906101000a900473ffffffffffffffffffffffffffffffffffffffff1673ffffffffffffffffffffffffffffffffffffffff163373ffffffffffffffffffffffffffffffffffffffff1614610f3b576040517f08c379a0000000000000000000000000000000000000000000000000000000008152600401610f3290612391565b60405180910390fd5b600360009054906101000a900460ff1615610f8b576040517f08c379a0000000000000000000000000000000000000000000000000000000008152600401610f8290611ba0565b60405180910390fd5b6001600360006101000a81548160ff02191690831515021790555060006001600084815260200190815260200160002090508060030160009054906101000a900460ff161561100f576040517f08c379a0000000000000000000000000000000000000000000000000000000008152600401611006906123fd565b60405180910390fd5b60018160030160006101000a81548160ff02191690831515021790555060008160030160016101000a81548160ff021916908315150217905550827f2809c7e17bf978fbc7194c0a694b638c4215e9140cacc6c38ca36010b45697df60405160405180910390a260008160040154146111125780600401546002600085815260200190815260200160002060008360030160029054906101000a900473ffffffffffffffffffffffffffffffffffffffff1673ffffffffffffffffffffffffffffffffffffffff1673ffffffffffffffffffffffffffffffffffffffff168152602001908152602001600020600082825461110a9190611de5565b925050819055505b506000600360006101000a81548160ff0219169083151502179055505050565b60005481565b806001600082815260200190815260200160002060000160009054906101000a900473ffffffffffffffffffffffffffffffffffffffff1673ffffffffffffffffffffffffffffffffffffffff163373ffffffffffffffffffffffffffffffffffffffff16146111dd576040517f08c379a00000000000000000000000000000000000000000000000000000000081526004016111d490612391565b60405180910390fd5b600360009054906101000a900460ff161561122d576040517f08c379a000000000000000000000000000000000000000000000000000000000815260040161122490611ba0565b60405180910390fd5b6001600360006101000a81548160ff02191690831515021790555060006001600084815260200190815260200160002090508060030160019054906101000a900460ff166112b0576040517f08c379a00000000000000000000000000000000000000000000000000000000081526004016112a790611cbe565b60405180910390fd5b80600201544210156112f7576040517f08c379a00000000000000000000000000000000000000000000000000000000081526004016112ee90612469565b60405180910390fd5b8060030160009054906101000a900460ff1615611349576040517f08c379a0000000000000000000000000000000000000000000000000000000008152600401611340906123fd565b60405180910390fd5b60018160030160006101000a81548160ff02191690831515021790555060008160030160016101000a81548160ff021916908315150217905550827fd2aa34a4fdbbc6dff6a3e56f46e0f3ae2a31d7785ff3487aa5c95c642acea5018260030160029054906101000a900473ffffffffffffffffffffffffffffffffffffffff1683600401546040516113dd929190612489565b60405180910390a260008160040154111561151d5760008160000160009054906101000a900473ffffffffffffffffffffffffffffffffffffffff1673ffffffffffffffffffffffffffffffffffffffff16826004015460405161144090611c5d565b60006040518083038185875af1925050503d806000811461147d576040519150601f19603f3d011682016040523d82523d6000602084013e611482565b606091505b505090508061151b5781600401546002600086815260200190815260200160002060008460000160009054906101000a900473ffffffffffffffffffffffffffffffffffffffff1673ffffffffffffffffffffffffffffffffffffffff1673ffffffffffffffffffffffffffffffffffffffff16815260200190815260200160002060008282546115139190611de5565b925050819055505b505b506000600360006101000a81548160ff0219169083151502179055505050565b6000806000905060005b6000548110156115c9576001600082815260200190815260200160002060030160019054906101000a900460ff1680156115a257506001600082815260200190815260200160002060030160009054906101000a900460ff16155b156115b65781806115b29061205d565b9250505b80806115c19061205d565b915050611547565b508091505090565b6000604051905090565b600080fd5b600080fd5b6000819050919050565b6115f8816115e5565b811461160357600080fd5b50565b600081359050611615816115ef565b92915050565b600060208284031215611631576116306115db565b5b600061163f84828501611606565b91505092915050565b60008115159050919050565b61165d81611648565b82525050565b60006020820190506116786000830184611654565b92915050565b600073ffffffffffffffffffffffffffffffffffffffff82169050919050565b60006116a98261167e565b9050919050565b6116b98161169e565b82525050565b6116c8816115e5565b82525050565b60006116d98261167e565b9050919050565b6116e9816116ce565b82525050565b600081519050919050565b600082825260208201905092915050565b60005b8381101561172957808201518184015260208101905061170e565b60008484015250505050565b6000601f19601f8301169050919050565b6000611751826116ef565b61175b81856116fa565b935061176b81856020860161170b565b61177481611735565b840191505092915050565b600061018082019050611795600083018f6116b0565b6117a2602083018e6116bf565b6117af604083018d6116bf565b6117bc606083018c611654565b6117c9608083018b611654565b6117d660a083018a6116e0565b6117e360c08301896116bf565b6117f060e08301886116bf565b6117fe6101008301876116bf565b61180c6101208301866116bf565b81810361014083015261181f8185611746565b90508181036101608301526118348184611746565b90509d9c50505050505050505050505050565b60006101008201905061185d600083018b6116e0565b818103602083015261186f818a611746565b905081810360408301526118838189611746565b905061189260608301886116bf565b61189f60808301876116e0565b6118ac60a08301866116bf565b6118b960c0830185611654565b6118c660e0830184611654565b9998505050505050505050565b600080fd5b600080fd5b7f4e487b7100000000000000000000000000000000000000000000000000000000600052604160045260246000fd5b61191582611735565b810181811067ffffffffffffffff82111715611934576119336118dd565b5b80604052505050565b60006119476115d1565b9050611953828261190c565b919050565b600067ffffffffffffffff821115611973576119726118dd565b5b61197c82611735565b9050602081019050919050565b82818337600083830152505050565b60006119ab6119a684611958565b61193d565b9050828152602081018484840111156119c7576119c66118d8565b5b6119d2848285611989565b509392505050565b600082601f8301126119ef576119ee6118d3565b5b81356119ff848260208601611998565b91505092915050565b60008060008060008060c08789031215611a2557611a246115db565b5b600087013567ffffffffffffffff811115611a4357611a426115e0565b5b611a4f89828a016119da565b965050602087013567ffffffffffffffff811115611a7057611a6f6115e0565b5b611a7c89828a016119da565b9550506040611a8d89828a01611606565b9450506060611a9e89828a01611606565b9350506080611aaf89828a01611606565b92505060a0611ac089828a01611606565b9150509295509295509295565b6000602082019050611ae260008301846116bf565b92915050565b611af1816116ce565b8114611afc57600080fd5b50565b600081359050611b0e81611ae8565b92915050565b60008060408385031215611b2b57611b2a6115db565b5b6000611b3985828601611606565b9250506020611b4a85828601611aff565b9150509250929050565b7f5265656e7472616e742063616c6c000000000000000000000000000000000000600082015250565b6000611b8a600e836116fa565b9150611b9582611b54565b602082019050919050565b60006020820190508181036000830152611bb981611b7d565b9050919050565b7f4e6f2066756e6473000000000000000000000000000000000000000000000000600082015250565b6000611bf66008836116fa565b9150611c0182611bc0565b602082019050919050565b60006020820190508181036000830152611c2581611be9565b9050919050565b600081905092915050565b50565b6000611c47600083611c2c565b9150611c5282611c37565b600082019050919050565b6000611c6882611c3a565b9150819050919050565b7f41756374696f6e206e6f74207374617274656400000000000000000000000000600082015250565b6000611ca86013836116fa565b9150611cb382611c72565b602082019050919050565b60006020820190508181036000830152611cd781611c9b565b9050919050565b7f41756374696f6e20656e64656400000000000000000000000000000000000000600082015250565b6000611d14600d836116fa565b9150611d1f82611cde565b602082019050919050565b60006020820190508181036000830152611d4381611d07565b9050919050565b7f53656c6c65722063616e6e6f7420626964000000000000000000000000000000600082015250565b6000611d806011836116fa565b9150611d8b82611d4a565b602082019050919050565b60006020820190508181036000830152611daf81611d73565b9050919050565b7f4e487b7100000000000000000000000000000000000000000000000000000000600052601160045260246000fd5b6000611df0826115e5565b9150611dfb836115e5565b9250828201905080821115611e1357611e12611db6565b5b92915050565b7f4269642062656c6f77206d696e20696e6372656d656e74000000000000000000600082015250565b6000611e4f6017836116fa565b9150611e5a82611e19565b602082019050919050565b60006020820190508181036000830152611e7e81611e42565b9050919050565b7f41626f7665206d61784269640000000000000000000000000000000000000000600082015250565b6000611ebb600c836116fa565b9150611ec682611e85565b602082019050919050565b60006020820190508181036000830152611eea81611eae565b9050919050565b6000611efc826115e5565b9150611f07836115e5565b9250828203905081811115611f1f57611f1e611db6565b5b92915050565b7f4e487b7100000000000000000000000000000000000000000000000000000000600052602260045260246000fd5b60006002820490506001821680611f6c57607f821691505b602082108103611f7f57611f7e611f25565b5b50919050565b7f496e76616c69642062696464696e672074696d65000000000000000000000000600082015250565b6000611fbb6014836116fa565b9150611fc682611f85565b602082019050919050565b60006020820190508181036000830152611fea81611fae565b9050919050565b7f496e76616c6964206d696e20696e6372656d656e740000000000000000000000600082015250565b60006120276015836116fa565b915061203282611ff1565b602082019050919050565b600060208201905081810360008301526120568161201a565b9050919050565b6000612068826115e5565b91507fffffffffffffffffffffffffffffffffffffffffffffffffffffffffffffffff820361209a57612099611db6565b5b600182019050919050565b60008190508160005260206000209050919050565b60006020601f8301049050919050565b600082821b905092915050565b6000600883026121077fffffffffffffffffffffffffffffffffffffffffffffffffffffffffffffffff826120ca565b61211186836120ca565b95508019841693508086168417925050509392505050565b6000819050919050565b600061214e612149612144846115e5565b612129565b6115e5565b9050919050565b6000819050919050565b61216883612133565b61217c61217482612155565b8484546120d7565b825550505050565b600090565b612191612184565b61219c81848461215f565b505050565b5b818110156121c0576121b5600082612189565b6001810190506121a2565b5050565b601f821115612205576121d6816120a5565b6121df846120ba565b810160208510156121ee578190505b6122026121fa856120ba565b8301826121a1565b50505b505050565b600082821c905092915050565b60006122286000198460080261220a565b1980831691505092915050565b60006122418383612217565b9150826002028217905092915050565b61225a826116ef565b67ffffffffffffffff811115612273576122726118dd565b5b61227d8254611f54565b6122888282856121c4565b600060209050601f8311600181146122bb57600084156122a9578287015190505b6122b38582612235565b86555061231b565b601f1984166122c9866120a5565b60005b828110156122f1578489015182556001820191506020850194506020810190506122cc565b8683101561230e578489015161230a601f891682612217565b8355505b6001600288020188555050505b505050505050565b6000602082019050818103600083015261233d8184611746565b905092915050565b7f4f6e6c792061756374696f6e2073656c6c657200000000000000000000000000600082015250565b600061237b6013836116fa565b915061238682612345565b602082019050919050565b600060208201905081810360008301526123aa8161236e565b9050919050565b7f416c726561647920656e64656400000000000000000000000000000000000000600082015250565b60006123e7600d836116fa565b91506123f2826123b1565b602082019050919050565b60006020820190508181036000830152612416816123da565b9050919050565b7f41756374696f6e206e6f742079657420656e6465640000000000000000000000600082015250565b60006124536015836116fa565b915061245e8261241d565b602082019050919050565b6000602082019050818103600083015261248281612446565b9050919050565b600060408201905061249e60008301856116e0565b6124ab60208301846116bf565b939250505056fea26469706673582212205a5883c7740cea87edea4022a96b8fd3ac2dfd62b6f6898967df070ac24671fd64736f6c63430008110033",
  "immutableReferences": {},
  "source": "// SPDX-License-Identifier: MIT\npragma solidity ^0.8.17;\n\ncontract MultiAuction {\n    struct Auction {\n        address payable seller;\n        uint startTime;\n        uint endTime;\n        bool ended;\n        bool auctionStarted;\n        address highestBidder;\n        uint highestBid;\n        uint minIncrement;\n        uint extensionTime;\n        uint maxBid;\n        string itemName;\n        string imageUrl;\n    }\n\n    uint public auctionCounter;\n    mapping(uint => Auction) public auctions;\n    mapping(uint => mapping(address => uint)) public pendingReturns;\n\n    bool private locked;\n\n    event AuctionCreated(uint indexed auctionId, address indexed seller, string itemName);\n    event HighestBidIncreased(uint indexed auctionId, address indexed bidder, uint amount);\n    event AuctionExtended(uint indexed auctionId, uint newEndTime);\n    event AuctionEnded(uint indexed auctionId, address winner, uint amount);\n    event AuctionCancelled(uint indexed auctionId);\n    event Withdrawn(uint indexed auctionId, address indexed who, uint amount);\n\n    modifier noReentrant() {\n        require(!locked, \"Reentrant call\");\n        locked = true;\n        _;\n        locked = false;\n    }\n\n    modifier onlyAuctionSeller(uint _auctionId) {\n        require(msg.sender == auctions[_auctionId].seller, \"Only auction seller\");\n        _;\n    }\n\n    \n    function createAuction(\n        string memory _itemName,\n        string memory _imageUrl,\n        uint _biddingTime,\n        uint _minIncrement,\n        uint _extensionTime,\n        uint _maxBid\n    ) external returns (uint) {\n        require(_biddingTime > 0, \"Invalid bidding time\");\n        require(_minIncrement > 0, \"Invalid min increment\");\n\n        uint auctionId = auctionCounter++;\n        \n        Auction storage newAuction = auctions[auctionId];\n        newAuction.seller = payable(msg.sender);\n        newAuction.itemName = _itemName;\n        newAuction.imageUrl = _imageUrl;\n        newAuction.startTime = block.timestamp;\n        newAuction.endTime = block.timestamp + _biddingTime;\n        newAuction.minIncrement = _minIncrement;\n        newAuction.extensionTime = _extensionTime;\n        newAuction.maxBid = _maxBid;\n        newAuction.auctionStarted = true;\n        newAuction.ended = false;\n\n        emit AuctionCreated(auctionId, msg.sender, _itemName);\n        \n        return auctionId;\n    }\n\n    function bid(uint _auctionId) external payable {\n        Auction storage auction = auctions[_auctionId];\n        \n        require(auction.auctionStarted, \"Auction not started\");\n        require(block.timestamp < auction.endTime, \"Auction ended\");\n        require(msg.sender != auction.seller, \"Seller cannot bid\");\n\n        uint required = auction.highestBid + auction.minIncrement;\n        require(msg.value >= required, \"Bid below min increment\");\n        \n        if (auction.maxBid != 0) {\n            require(msg.value <= auction.maxBid, \"Above maxBid\");\n        }\n\n        if (auction.highestBid != 0) {\n            pendingReturns[_auctionId][auction.highestBidder] += auction.highestBid;\n        }\n\n        auction.highestBidder = msg.sender;\n        auction.highestBid = msg.value;\n\n        if (auction.endTime - block.timestamp < auction.extensionTime) {\n            auction.endTime += auction.extensionTime;\n            emit AuctionExtended(_auctionId, auction.endTime);\n        }\n\n        emit HighestBidIncreased(_auctionId, msg.sender, msg.value);\n    }\n\n    function withdraw(uint _auctionId) external noReentrant returns (bool) {\n        uint amount = pendingReturns[_auctionId][msg.sender];\n        require(amount > 0, \"No funds\");\n        \n        pendingReturns[_auctionId][msg.sender] = 0;\n        \n        (bool success, ) = payable(msg.sender).call{value: amount}(\"\");\n        if (!success) {\n            pendingReturns[_auctionId][msg.sender] = amount;\n            return false;\n        }\n        \n        emit Withdrawn(_auctionId, msg.sender, amount);\n        return true;\n    }\n\n    function endAuction(uint _auctionId) external onlyAuctionSeller(_auctionId) noReentrant {\n        Auction storage auction = auctions[_auctionId];\n        \n        require(auction.auctionStarted, \"Auction not started\");\n        require(block.timestamp >= auction.endTime, \"Auction not yet ended\");\n        require(!auction.ended, \"Already ended\");\n\n        auction.ended = true;\n        auction.auctionStarted = false;\n\n        emit AuctionEnded(_auctionId, auction.highestBidder, auction.highestBid);\n\n        if (auction.highestBid > 0) {\n            (bool success, ) = auction.seller.call{value: auction.highestBid}(\"\");\n            if (!success) {\n                pendingReturns[_auctionId][auction.seller] += auction.highestBid;\n            }\n        }\n    }\n\n    function cancelAuction(uint _auctionId) external onlyAuctionSeller(_auctionId) noReentrant {\n        Auction storage auction = auctions[_auctionId];\n        require(!auction.ended, \"Already ended\");\n\n        auction.ended = true;\n        auction.auctionStarted = false;\n\n        emit AuctionCancelled(_auctionId);\n\n        if (auction.highestBid != 0) {\n            pendingReturns[_auctionId][auction.highestBidder] += auction.highestBid;\n        }\n    }\n\n    function getAuction(uint _auctionId) external view returns (\n        address seller,\n        string memory itemName,\n        string memory imageUrl,\n        uint endTime,\n        address highestBidder,\n        uint highestBid,\n        bool ended,\n        bool auctionStarted\n    ) {\n        Auction storage auction = auctions[_auctionId];\n        return (\n            auction.seller,\n            auction.itemName,\n            auction.imageUrl,\n            auction.endTime,\n            auction.highestBidder,\n            auction.highestBid,\n            auction.ended,\n            auction.auctionStarted\n        );\n    }\n\n    function getActiveAuctionsCount() external view returns (uint) {\n        uint count = 0;\n        for (uint i = 0; i < auctionCounter; i++) {\n            if (auctions[i].auctionStarted && !auctions[i].ended) {\n                count++;\n            }\n        }\n        return count;\n    }\n}",
  "sourcePath": "C:\\Users\\kavin\\Desktop\\Bchain\\bidding_system\\smart-contract\\contracts\\SecureAuction.sol",
  "compiler": {
    "name": "solc",
    "version": "0.8.17+commit.8df45f5f.Emscripten.clang"
  },
  "schemaVersion": "3.4.16",
  "updatedAt": "2026-02-03T15:53:52.449Z",
  "devdoc": {
    "kind": "dev",
    "methods": {},
    "version": 1
  },
  "userdoc": {
    "kind": "user",
    "methods": {},
    "version": 1
  }
}