{
  "contractName": "SecureAuction",
  "abi": [
    {
      "anonymous": false,
      "inputs": [
        {
          "indexed": false,
          "internalType": "uint256",
          "name": "auctionId",
          "type": "uint256"
        }
      ],
      "name": "AuctionCancelled",
      "type": "event"
    },
    {
      "anonymous": false,
      "inputs": [
        {
          "indexed": false,
          "internalType": "uint256",
          "name": "auctionId",
          "type": "uint256"
        },
        {
          "indexed": false,
          "internalType": "address",
          "name": "seller",
          "type": "address"
        }
      ],
      "name": "AuctionCreated",
      "type": "event"
    },
    {
      "anonymous": false,
      "inputs": [
        {
          "indexed": false,
          "internalType": "uint256",
          "name": "auctionId",
          "type": "uint256"
        },
        {
          "indexed": false,
          "internalType": "address",
          "name": "winner",
          "type": "address"
        },
        {
          "indexed": false,
          "internalType": "uint256",
          "name": "amount",
          "type": "uint256"
        }
      ],
      "name": "AuctionEnded",
      "type": "event"
    },
    {
      "anonymous": false,
      "inputs": [
        {
          "indexed": false,
          "internalType": "uint256",
          "name": "auctionId",
          "type": "uint256"
        },
        {
          "indexed": false,
          "internalType": "uint256",
          "name": "newEndTime",
          "type": "uint256"
        }
      ],
      "name": "AuctionExtended",
      "type": "event"
    },
    {
      "anonymous": false,
      "inputs": [
        {
          "indexed": false,
          "internalType": "uint256",
          "name": "auctionId",
          "type": "uint256"
        },
        {
          "indexed": false,
          "internalType": "address",
          "name": "bidder",
          "type": "address"
        },
        {
          "indexed": false,
          "internalType": "uint256",
          "name": "amount",
          "type": "uint256"
        }
      ],
      "name": "HighestBidIncreased",
      "type": "event"
    },
    {
      "anonymous": false,
      "inputs": [
        {
          "indexed": true,
          "internalType": "address",
          "name": "who",
          "type": "address"
        },
        {
          "indexed": false,
          "internalType": "uint256",
          "name": "amount",
          "type": "uint256"
        }
      ],
      "name": "WithdrawFailed",
      "type": "event"
    },
    {
      "anonymous": false,
      "inputs": [
        {
          "indexed": true,
          "internalType": "address",
          "name": "who",
          "type": "address"
        },
        {
          "indexed": false,
          "internalType": "uint256",
          "name": "amount",
          "type": "uint256"
        }
      ],
      "name": "Withdrawn",
      "type": "event"
    },
    {
      "inputs": [],
      "name": "auctionCount",
      "outputs": [
        {
          "internalType": "uint256",
          "name": "",
          "type": "uint256"
        }
      ],
      "stateMutability": "view",
      "type": "function",
      "constant": true
    },
    {
      "inputs": [
        {
          "internalType": "uint256",
          "name": "",
          "type": "uint256"
        }
      ],
      "name": "auctions",
      "outputs": [
        {
          "internalType": "address payable",
          "name": "seller",
          "type": "address"
        },
        {
          "internalType": "uint256",
          "name": "startTime",
          "type": "uint256"
        },
        {
          "internalType": "uint256",
          "name": "endTime",
          "type": "uint256"
        },
        {
          "internalType": "bool",
          "name": "ended",
          "type": "bool"
        },
        {
          "internalType": "address",
          "name": "highestBidder",
          "type": "address"
        },
        {
          "internalType": "uint256",
          "name": "highestBid",
          "type": "uint256"
        },
        {
          "internalType": "uint256",
          "name": "minIncrement",
          "type": "uint256"
        },
        {
          "internalType": "uint256",
          "name": "extensionTime",
          "type": "uint256"
        },
        {
          "internalType": "uint256",
          "name": "maxBid",
          "type": "uint256"
        }
      ],
      "stateMutability": "view",
      "type": "function",
      "constant": true
    },
    {
      "inputs": [
        {
          "internalType": "uint256",
          "name": "",
          "type": "uint256"
        }
      ],
      "name": "pendingParties",
      "outputs": [
        {
          "internalType": "address",
          "name": "",
          "type": "address"
        }
      ],
      "stateMutability": "view",
      "type": "function",
      "constant": true
    },
    {
      "inputs": [
        {
          "internalType": "address",
          "name": "",
          "type": "address"
        }
      ],
      "name": "pendingReturns",
      "outputs": [
        {
          "internalType": "uint256",
          "name": "",
          "type": "uint256"
        }
      ],
      "stateMutability": "view",
      "type": "function",
      "constant": true
    },
    {
      "stateMutability": "payable",
      "type": "receive",
      "payable": true
    },
    {
      "inputs": [
        {
          "internalType": "uint256",
          "name": "_biddingTime",
          "type": "uint256"
        },
        {
          "internalType": "uint256",
          "name": "_minIncrement",
          "type": "uint256"
        },
        {
          "internalType": "uint256",
          "name": "_extensionTime",
          "type": "uint256"
        },
        {
          "internalType": "uint256",
          "name": "_maxBid",
          "type": "uint256"
        }
      ],
      "name": "createAuction",
      "outputs": [],
      "stateMutability": "nonpayable",
      "type": "function"
    },
    {
      "inputs": [
        {
          "internalType": "uint256",
          "name": "auctionId",
          "type": "uint256"
        }
      ],
      "name": "bid",
      "outputs": [],
      "stateMutability": "payable",
      "type": "function",
      "payable": true
    },
    {
      "inputs": [
        {
          "internalType": "uint256",
          "name": "auctionId",
          "type": "uint256"
        }
      ],
      "name": "endAuction",
      "outputs": [],
      "stateMutability": "nonpayable",
      "type": "function"
    },
    {
      "inputs": [
        {
          "internalType": "uint256",
          "name": "auctionId",
          "type": "uint256"
        }
      ],
      "name": "cancelAuction",
      "outputs": [],
      "stateMutability": "nonpayable",
      "type": "function"
    },
    {
      "inputs": [],
      "name": "withdraw",
      "outputs": [
        {
          "internalType": "bool",
          "name": "",
          "type": "bool"
        }
      ],
      "stateMutability": "nonpayable",
      "type": "function"
    },
    {
      "inputs": [],
      "name": "getPendingParties",
      "outputs": [
        {
          "internalType": "address[]",
          "name": "",
          "type": "address[]"
        }
      ],
      "stateMutability": "view",
      "type": "function",
      "constant": true
    }
  ],
  "bytecode": "0x608060405234801561001057600080fd5b5061224a806100206000396000f3fe6080604052600436106100955760003560e01c8063571a26a011610059578063571a26a0146101b25780635e36a631146101f757806396b5a755146102345780639882e4141461025d578063b9a2de3a14610288576100d5565b806326b387bb146100da5780632ad71573146101175780633ccfd60b14610142578063431f21da1461016d578063454a2ab314610196576100d5565b366100d5576040517f08c379a00000000000000000000000000000000000000000000000000000000081526004016100cc906117c4565b60405180910390fd5b600080fd5b3480156100e657600080fd5b5061010160048036038101906100fc9190611847565b6102b1565b60405161010e919061188d565b60405180910390f35b34801561012357600080fd5b5061012c6102c9565b604051610139919061188d565b60405180910390f35b34801561014e57600080fd5b506101576102cf565b60405161016491906118c3565b60405180910390f35b34801561017957600080fd5b50610194600480360381019061018f919061190a565b610589565b005b6101b060048036038101906101ab9190611971565b6107e5565b005b3480156101be57600080fd5b506101d960048036038101906101d49190611971565b610d24565b6040516101ee999897969594939291906119ce565b60405180910390f35b34801561020357600080fd5b5061021e60048036038101906102199190611971565b610dbf565b60405161022b9190611a5b565b60405180910390f35b34801561024057600080fd5b5061025b60048036038101906102569190611971565b610dfe565b005b34801561026957600080fd5b506102726111e5565b60405161027f9190611b34565b60405180910390f35b34801561029457600080fd5b506102af60048036038101906102aa9190611971565b611273565b005b60026020528060005260406000206000915090505481565b60005481565b6000600560009054906101000a900460ff1615610321576040517f08c379a000000000000000000000000000000000000000000000000000000000815260040161031890611ba2565b60405180910390fd5b6001600560006101000a81548160ff0219169083151502179055506000600260003373ffffffffffffffffffffffffffffffffffffffff1673ffffffffffffffffffffffffffffffffffffffff168152602001908152602001600020549050600081116103c3576040517f08c379a00000000000000000000000000000000000000000000000000000000081526004016103ba90611c0e565b60405180910390fd5b6000600260003373ffffffffffffffffffffffffffffffffffffffff1673ffffffffffffffffffffffffffffffffffffffff1681526020019081526020016000208190555060003373ffffffffffffffffffffffffffffffffffffffff168260405161042e90611c5f565b60006040518083038185875af1925050503d806000811461046b576040519150601f19603f3d011682016040523d82523d6000602084013e610470565b606091505b50509050806105165781600260003373ffffffffffffffffffffffffffffffffffffffff1673ffffffffffffffffffffffffffffffffffffffff168152602001908152602001600020819055503373ffffffffffffffffffffffffffffffffffffffff167fa2269912b47133fae1d7f448c9284ea248951ac29b8c7c41d301f8721a38d10d83604051610503919061188d565b60405180910390a260009250505061056b565b3373ffffffffffffffffffffffffffffffffffffffff167f7084f5476618d8e60b11ef0d7d3f06914655adb8793e28ff7f018d4c76d505d58360405161055c919061188d565b60405180910390a26001925050505b6000600560006101000a81548160ff02191690831515021790555090565b600084116105cc576040517f08c379a00000000000000000000000000000000000000000000000000000000081526004016105c390611cc0565b60405180910390fd5b6000831161060f576040517f08c379a000000000000000000000000000000000000000000000000000000000815260040161060690611d2c565b60405180910390fd5b60008081548092919061062190611d7b565b91905055506040518061012001604052803373ffffffffffffffffffffffffffffffffffffffff16815260200142815260200185426106609190611dc3565b8152602001600015158152602001600073ffffffffffffffffffffffffffffffffffffffff1681526020016000815260200184815260200183815260200182815250600160008054815260200190815260200160002060008201518160000160006101000a81548173ffffffffffffffffffffffffffffffffffffffff021916908373ffffffffffffffffffffffffffffffffffffffff160217905550602082015181600101556040820151816002015560608201518160030160006101000a81548160ff02191690831515021790555060808201518160030160016101000a81548173ffffffffffffffffffffffffffffffffffffffff021916908373ffffffffffffffffffffffffffffffffffffffff16021790555060a0820151816004015560c0820151816005015560e0820151816006015561010082015181600701559050507f5d551e2a2cc977fd8c530317059b4f2d9f504fb82f7dfad736f8d56679bcdfd0600054336040516107d7929190611df7565b60405180910390a150505050565b60006001600083815260200190815260200160002090508060010154421015610843576040517f08c379a000000000000000000000000000000000000000000000000000000000815260040161083a90611e6c565b60405180910390fd5b80600201544210610889576040517f08c379a000000000000000000000000000000000000000000000000000000000815260040161088090611ed8565b60405180910390fd5b8060030160009054906101000a900460ff16156108db576040517f08c379a00000000000000000000000000000000000000000000000000000000081526004016108d290611f44565b60405180910390fd5b8060000160009054906101000a900473ffffffffffffffffffffffffffffffffffffffff1673ffffffffffffffffffffffffffffffffffffffff163373ffffffffffffffffffffffffffffffffffffffff160361096d576040517f08c379a000000000000000000000000000000000000000000000000000000000815260040161096490611fb0565b60405180910390fd5b6000816005015482600401546109839190611dc3565b9050803410156109c8576040517f08c379a00000000000000000000000000000000000000000000000000000000081526004016109bf9061201c565b60405180910390fd5b6000826007015414610a1c578160070154341115610a1b576040517f08c379a0000000000000000000000000000000000000000000000000000000008152600401610a1290612088565b60405180910390fd5b5b6000826004015414610c20578160040154600260008460030160019054906101000a900473ffffffffffffffffffffffffffffffffffffffff1673ffffffffffffffffffffffffffffffffffffffff1673ffffffffffffffffffffffffffffffffffffffff1681526020019081526020016000206000828254610a9f9190611dc3565b92505081905550600360008360030160019054906101000a900473ffffffffffffffffffffffffffffffffffffffff1673ffffffffffffffffffffffffffffffffffffffff1673ffffffffffffffffffffffffffffffffffffffff16815260200190815260200160002060009054906101000a900460ff16610c1f576001600360008460030160019054906101000a900473ffffffffffffffffffffffffffffffffffffffff1673ffffffffffffffffffffffffffffffffffffffff1673ffffffffffffffffffffffffffffffffffffffff16815260200190815260200160002060006101000a81548160ff02191690831515021790555060048260030160019054906101000a900473ffffffffffffffffffffffffffffffffffffffff169080600181540180825580915050600190039060005260206000200160009091909190916101000a81548173ffffffffffffffffffffffffffffffffffffffff021916908373ffffffffffffffffffffffffffffffffffffffff1602179055505b5b338260030160016101000a81548173ffffffffffffffffffffffffffffffffffffffff021916908373ffffffffffffffffffffffffffffffffffffffff1602179055503482600401819055508160060154428360020154610c8191906120a8565b1015610ce4578160060154826002016000828254610c9f9190611dc3565b925050819055507f6e912a3a9105bdd2af817ba5adc14e6c127c1035b5b648faa29ca0d58ab8ff4e838360020154604051610cdb9291906120dc565b60405180910390a15b7fda0a18da71d8ebd145966339a728fc0d8ccc07c22870d561890d823c515dda6b833334604051610d1793929190612105565b60405180910390a1505050565b60016020528060005260406000206000915090508060000160009054906101000a900473ffffffffffffffffffffffffffffffffffffffff16908060010154908060020154908060030160009054906101000a900460ff16908060030160019054906101000a900473ffffffffffffffffffffffffffffffffffffffff16908060040154908060050154908060060154908060070154905089565b60048181548110610dcf57600080fd5b906000526020600020016000915054906101000a900473ffffffffffffffffffffffffffffffffffffffff1681565b600560009054906101000a900460ff1615610e4e576040517f08c379a0000000000000000000000000000000000000000000000000000000008152600401610e4590611ba2565b60405180910390fd5b6001600560006101000a81548160ff02191690831515021790555060006001600083815260200190815260200160002090508060000160009054906101000a900473ffffffffffffffffffffffffffffffffffffffff1673ffffffffffffffffffffffffffffffffffffffff163373ffffffffffffffffffffffffffffffffffffffff1614610f12576040517f08c379a0000000000000000000000000000000000000000000000000000000008152600401610f0990612188565b60405180910390fd5b8060030160009054906101000a900460ff1615610f64576040517f08c379a0000000000000000000000000000000000000000000000000000000008152600401610f5b90611f44565b60405180910390fd5b60018160030160006101000a81548160ff0219169083151502179055507f2809c7e17bf978fbc7194c0a694b638c4215e9140cacc6c38ca36010b45697df82604051610fb0919061188d565b60405180910390a160008160040154146111c6578060040154600260008360030160019054906101000a900473ffffffffffffffffffffffffffffffffffffffff1673ffffffffffffffffffffffffffffffffffffffff1673ffffffffffffffffffffffffffffffffffffffff168152602001908152602001600020600082825461103b9190611dc3565b92505081905550600360008260030160019054906101000a900473ffffffffffffffffffffffffffffffffffffffff1673ffffffffffffffffffffffffffffffffffffffff1673ffffffffffffffffffffffffffffffffffffffff16815260200190815260200160002060009054906101000a900460ff166111bb576001600360008360030160019054906101000a900473ffffffffffffffffffffffffffffffffffffffff1673ffffffffffffffffffffffffffffffffffffffff1673ffffffffffffffffffffffffffffffffffffffff16815260200190815260200160002060006101000a81548160ff02191690831515021790555060048160030160019054906101000a900473ffffffffffffffffffffffffffffffffffffffff169080600181540180825580915050600190039060005260206000200160009091909190916101000a81548173ffffffffffffffffffffffffffffffffffffffff021916908373ffffffffffffffffffffffffffffffffffffffff1602179055505b600081600401819055505b506000600560006101000a81548160ff02191690831515021790555050565b6060600480548060200260200160405190810160405280929190818152602001828054801561126957602002820191906000526020600020905b8160009054906101000a900473ffffffffffffffffffffffffffffffffffffffff1673ffffffffffffffffffffffffffffffffffffffff168152602001906001019080831161121f575b5050505050905090565b600560009054906101000a900460ff16156112c3576040517f08c379a00000000000000000000000000000000000000000000000000000000081526004016112ba90611ba2565b60405180910390fd5b6001600560006101000a81548160ff02191690831515021790555060006001600083815260200190815260200160002090508060000160009054906101000a900473ffffffffffffffffffffffffffffffffffffffff1673ffffffffffffffffffffffffffffffffffffffff163373ffffffffffffffffffffffffffffffffffffffff1614611387576040517f08c379a000000000000000000000000000000000000000000000000000000000815260040161137e90612188565b60405180910390fd5b80600201544210156113ce576040517f08c379a00000000000000000000000000000000000000000000000000000000081526004016113c5906121f4565b60405180910390fd5b8060030160009054906101000a900460ff1615611420576040517f08c379a000000000000000000000000000000000000000000000000000000000815260040161141790611f44565b60405180910390fd5b60018160030160006101000a81548160ff0219169083151502179055507fd2aa34a4fdbbc6dff6a3e56f46e0f3ae2a31d7785ff3487aa5c95c642acea501828260030160019054906101000a900473ffffffffffffffffffffffffffffffffffffffff16836004015460405161149893929190612105565b60405180910390a16000816004015490506000826004018190555060008111156117475760008260000160009054906101000a900473ffffffffffffffffffffffffffffffffffffffff1673ffffffffffffffffffffffffffffffffffffffff168260405161150690611c5f565b60006040518083038185875af1925050503d8060008114611543576040519150601f19603f3d011682016040523d82523d6000602084013e611548565b606091505b50509050806117455781600260008560000160009054906101000a900473ffffffffffffffffffffffffffffffffffffffff1673ffffffffffffffffffffffffffffffffffffffff1673ffffffffffffffffffffffffffffffffffffffff16815260200190815260200160002060008282546115c49190611dc3565b92505081905550600360008460000160009054906101000a900473ffffffffffffffffffffffffffffffffffffffff1673ffffffffffffffffffffffffffffffffffffffff1673ffffffffffffffffffffffffffffffffffffffff16815260200190815260200160002060009054906101000a900460ff16611744576001600360008560000160009054906101000a900473ffffffffffffffffffffffffffffffffffffffff1673ffffffffffffffffffffffffffffffffffffffff1673ffffffffffffffffffffffffffffffffffffffff16815260200190815260200160002060006101000a81548160ff02191690831515021790555060048360000160009054906101000a900473ffffffffffffffffffffffffffffffffffffffff169080600181540180825580915050600190039060005260206000200160009091909190916101000a81548173ffffffffffffffffffffffffffffffffffffffff021916908373ffffffffffffffffffffffffffffffffffffffff1602179055505b5b505b50506000600560006101000a81548160ff02191690831515021790555050565b600082825260208201905092915050565b7f446972656374206465706f73697473206e6f7420616363657074656400000000600082015250565b60006117ae601c83611767565b91506117b982611778565b602082019050919050565b600060208201905081810360008301526117dd816117a1565b9050919050565b600080fd5b600073ffffffffffffffffffffffffffffffffffffffff82169050919050565b6000611814826117e9565b9050919050565b61182481611809565b811461182f57600080fd5b50565b6000813590506118418161181b565b92915050565b60006020828403121561185d5761185c6117e4565b5b600061186b84828501611832565b91505092915050565b6000819050919050565b61188781611874565b82525050565b60006020820190506118a2600083018461187e565b92915050565b60008115159050919050565b6118bd816118a8565b82525050565b60006020820190506118d860008301846118b4565b92915050565b6118e781611874565b81146118f257600080fd5b50565b600081359050611904816118de565b92915050565b60008060008060808587031215611924576119236117e4565b5b6000611932878288016118f5565b9450506020611943878288016118f5565b9350506040611954878288016118f5565b9250506060611965878288016118f5565b91505092959194509250565b600060208284031215611987576119866117e4565b5b6000611995848285016118f5565b91505092915050565b60006119a9826117e9565b9050919050565b6119b98161199e565b82525050565b6119c881611809565b82525050565b6000610120820190506119e4600083018c6119b0565b6119f1602083018b61187e565b6119fe604083018a61187e565b611a0b60608301896118b4565b611a1860808301886119bf565b611a2560a083018761187e565b611a3260c083018661187e565b611a3f60e083018561187e565b611a4d61010083018461187e565b9a9950505050505050505050565b6000602082019050611a7060008301846119bf565b92915050565b600081519050919050565b600082825260208201905092915050565b6000819050602082019050919050565b611aab81611809565b82525050565b6000611abd8383611aa2565b60208301905092915050565b6000602082019050919050565b6000611ae182611a76565b611aeb8185611a81565b9350611af683611a92565b8060005b83811015611b27578151611b0e8882611ab1565b9750611b1983611ac9565b925050600181019050611afa565b5085935050505092915050565b60006020820190508181036000830152611b4e8184611ad6565b905092915050565b7f5265656e7472616e742063616c6c000000000000000000000000000000000000600082015250565b6000611b8c600e83611767565b9150611b9782611b56565b602082019050919050565b60006020820190508181036000830152611bbb81611b7f565b9050919050565b7f4e6f2066756e6473000000000000000000000000000000000000000000000000600082015250565b6000611bf8600883611767565b9150611c0382611bc2565b602082019050919050565b60006020820190508181036000830152611c2781611beb565b9050919050565b600081905092915050565b50565b6000611c49600083611c2e565b9150611c5482611c39565b600082019050919050565b6000611c6a82611c3c565b9150819050919050565b7f496e76616c69642062696464696e672074696d65000000000000000000000000600082015250565b6000611caa601483611767565b9150611cb582611c74565b602082019050919050565b60006020820190508181036000830152611cd981611c9d565b9050919050565b7f496e76616c6964206d696e20696e6372656d656e740000000000000000000000600082015250565b6000611d16601583611767565b9150611d2182611ce0565b602082019050919050565b60006020820190508181036000830152611d4581611d09565b9050919050565b7f4e487b7100000000000000000000000000000000000000000000000000000000600052601160045260246000fd5b6000611d8682611874565b91507fffffffffffffffffffffffffffffffffffffffffffffffffffffffffffffffff8203611db857611db7611d4c565b5b600182019050919050565b6000611dce82611874565b9150611dd983611874565b9250828201905080821115611df157611df0611d4c565b5b92915050565b6000604082019050611e0c600083018561187e565b611e1960208301846119bf565b9392505050565b7f4e6f742073746172746564000000000000000000000000000000000000000000600082015250565b6000611e56600b83611767565b9150611e6182611e20565b602082019050919050565b60006020820190508181036000830152611e8581611e49565b9050919050565b7f41756374696f6e20656e64656400000000000000000000000000000000000000600082015250565b6000611ec2600d83611767565b9150611ecd82611e8c565b602082019050919050565b60006020820190508181036000830152611ef181611eb5565b9050919050565b7f416c726561647920656e64656400000000000000000000000000000000000000600082015250565b6000611f2e600d83611767565b9150611f3982611ef8565b602082019050919050565b60006020820190508181036000830152611f5d81611f21565b9050919050565b7f53656c6c65722063616e6e6f7420626964000000000000000000000000000000600082015250565b6000611f9a601183611767565b9150611fa582611f64565b602082019050919050565b60006020820190508181036000830152611fc981611f8d565b9050919050565b7f4269642062656c6f77206d696e20696e6372656d656e74000000000000000000600082015250565b6000612006601783611767565b915061201182611fd0565b602082019050919050565b6000602082019050818103600083015261203581611ff9565b9050919050565b7f41626f7665206d61784269640000000000000000000000000000000000000000600082015250565b6000612072600c83611767565b915061207d8261203c565b602082019050919050565b600060208201905081810360008301526120a181612065565b9050919050565b60006120b382611874565b91506120be83611874565b92508282039050818111156120d6576120d5611d4c565b5b92915050565b60006040820190506120f1600083018561187e565b6120fe602083018461187e565b9392505050565b600060608201905061211a600083018661187e565b61212760208301856119bf565b612134604083018461187e565b949350505050565b7f4f6e6c792073656c6c6572000000000000000000000000000000000000000000600082015250565b6000612172600b83611767565b915061217d8261213c565b602082019050919050565b600060208201905081810360008301526121a181612165565b9050919050565b7f4e6f7420656e6465642079657400000000000000000000000000000000000000600082015250565b60006121de600d83611767565b91506121e9826121a8565b602082019050919050565b6000602082019050818103600083015261220d816121d1565b905091905056fea26469706673582212207a449b2d5d8706d1354da61287c00fcd9cc8e09035b7fabb8fca81a17f04e84e64736f6c63430008110033",
  "immutableReferences": {},
  "source": "// SPDX-License-Identifier: MIT\npragma solidity ^0.8.17;\n\ncontract SecureAuction {\n\n    struct Auction {\n        address payable seller;\n        uint startTime;\n        uint endTime;\n        bool ended;\n\n        address highestBidder;\n        uint highestBid;\n\n        uint minIncrement;\n        uint extensionTime;\n        uint maxBid;\n    }\n\n    uint public auctionCount;\n    mapping(uint => Auction) public auctions;\n\n    mapping(address => uint) public pendingReturns;\n    mapping(address => bool) private hasPendingRecorded;\n    address[] public pendingParties;\n\n    bool private locked;\n\n    event AuctionCreated(uint auctionId, address seller);\n    event HighestBidIncreased(uint auctionId, address bidder, uint amount);\n    event AuctionExtended(uint auctionId, uint newEndTime);\n    event AuctionEnded(uint auctionId, address winner, uint amount);\n    event AuctionCancelled(uint auctionId);\n    event Withdrawn(address indexed who, uint amount);\n    event WithdrawFailed(address indexed who, uint amount);\n\n    modifier noReentrant() {\n        require(!locked, \"Reentrant call\");\n        locked = true;\n        _;\n        locked = false;\n    }\n\n    function createAuction(\n        uint _biddingTime,\n        uint _minIncrement,\n        uint _extensionTime,\n        uint _maxBid\n    ) external {\n\n        require(_biddingTime > 0, \"Invalid bidding time\");\n        require(_minIncrement > 0, \"Invalid min increment\");\n\n        auctionCount++;\n\n        auctions[auctionCount] = Auction({\n            seller: payable(msg.sender),\n            startTime: block.timestamp,\n            endTime: block.timestamp + _biddingTime,\n            ended: false,\n            highestBidder: address(0),\n            highestBid: 0,\n            minIncrement: _minIncrement,\n            extensionTime: _extensionTime,\n            maxBid: _maxBid\n        });\n\n        emit AuctionCreated(auctionCount, msg.sender);\n    }\n\n    function bid(uint auctionId) external payable {\n        Auction storage auction = auctions[auctionId];\n\n        require(block.timestamp >= auction.startTime, \"Not started\");\n        require(block.timestamp < auction.endTime, \"Auction ended\");\n        require(!auction.ended, \"Already ended\");\n        require(msg.sender != auction.seller, \"Seller cannot bid\");\n\n        uint required = auction.highestBid + auction.minIncrement;\n        require(msg.value >= required, \"Bid below min increment\");\n\n        if (auction.maxBid != 0) {\n            require(msg.value <= auction.maxBid, \"Above maxBid\");\n        }\n\n        if (auction.highestBid != 0) {\n            pendingReturns[auction.highestBidder] += auction.highestBid;\n\n            if (!hasPendingRecorded[auction.highestBidder]) {\n                hasPendingRecorded[auction.highestBidder] = true;\n                pendingParties.push(auction.highestBidder);\n            }\n        }\n\n        auction.highestBidder = msg.sender;\n        auction.highestBid = msg.value;\n\n        if (auction.endTime - block.timestamp < auction.extensionTime) {\n            auction.endTime += auction.extensionTime;\n            emit AuctionExtended(auctionId, auction.endTime);\n        }\n\n        emit HighestBidIncreased(auctionId, msg.sender, msg.value);\n    }\n\n    function endAuction(uint auctionId) external noReentrant {\n        Auction storage auction = auctions[auctionId];\n\n        require(msg.sender == auction.seller, \"Only seller\");\n        require(block.timestamp >= auction.endTime, \"Not ended yet\");\n        require(!auction.ended, \"Already ended\");\n\n        auction.ended = true;\n\n        emit AuctionEnded(auctionId, auction.highestBidder, auction.highestBid);\n\n        uint amount = auction.highestBid;\n        auction.highestBid = 0;\n\n        if (amount > 0) {\n            (bool success, ) = auction.seller.call{value: amount}(\"\");\n\n            if (!success) {\n                pendingReturns[auction.seller] += amount;\n\n                if (!hasPendingRecorded[auction.seller]) {\n                    hasPendingRecorded[auction.seller] = true;\n                    pendingParties.push(auction.seller);\n                }\n            }\n        }\n    }\n\n    function cancelAuction(uint auctionId) external noReentrant {\n        Auction storage auction = auctions[auctionId];\n\n        require(msg.sender == auction.seller, \"Only seller\");\n        require(!auction.ended, \"Already ended\");\n\n        auction.ended = true;\n\n        emit AuctionCancelled(auctionId);\n\n        if (auction.highestBid != 0) {\n            pendingReturns[auction.highestBidder] += auction.highestBid;\n\n            if (!hasPendingRecorded[auction.highestBidder]) {\n                hasPendingRecorded[auction.highestBidder] = true;\n                pendingParties.push(auction.highestBidder);\n            }\n\n            auction.highestBid = 0;\n        }\n    }\n\n    function withdraw() external noReentrant returns (bool) {\n        uint amount = pendingReturns[msg.sender];\n        require(amount > 0, \"No funds\");\n\n        pendingReturns[msg.sender] = 0;\n\n        (bool success, ) = payable(msg.sender).call{value: amount}(\"\");\n\n        if (!success) {\n            pendingReturns[msg.sender] = amount;\n            emit WithdrawFailed(msg.sender, amount);\n            return false;\n        }\n\n        emit Withdrawn(msg.sender, amount);\n        return true;\n    }\n\n    function getPendingParties() external view returns (address[] memory) {\n        return pendingParties;\n    }\n\n    receive() external payable {\n        revert(\"Direct deposits not accepted\");\n    }\n}\n",
  "sourcePath": "C:\\Users\\kavin\\Desktop\\Bchain\\bidding_system\\smart-contract\\contracts\\SecureAuction.sol",
  "compiler": {
    "name": "solc",
    "version": "0.8.17+commit.8df45f5f.Emscripten.clang"
  },
  "schemaVersion": "3.4.16",
  "updatedAt": "2026-03-05T06:37:16.989Z",
  "networkType": "ethereum",
  "devdoc": {
    "kind": "dev",
    "methods": {},
    "version": 1
  },
  "userdoc": {
    "kind": "user",
    "methods": {},
    "version": 1
  }
}