{
  "contractName": "SecureAuction",
  "abi": [
    {
      "inputs": [
        {
          "internalType": "uint256",
          "name": "_biddingTime",
          "type": "uint256"
        },
        {
          "internalType": "uint256",
          "name": "_minIncrement",
          "type": "uint256"
        },
        {
          "internalType": "uint256",
          "name": "_extensionTime",
          "type": "uint256"
        },
        {
          "internalType": "uint256",
          "name": "_maxBid",
          "type": "uint256"
        }
      ],
      "stateMutability": "nonpayable",
      "type": "constructor"
    },
    {
      "anonymous": false,
      "inputs": [],
      "name": "AuctionCancelled",
      "type": "event"
    },
    {
      "anonymous": false,
      "inputs": [
        {
          "indexed": false,
          "internalType": "address",
          "name": "winner",
          "type": "address"
        },
        {
          "indexed": false,
          "internalType": "uint256",
          "name": "amount",
          "type": "uint256"
        }
      ],
      "name": "AuctionEnded",
      "type": "event"
    },
    {
      "anonymous": false,
      "inputs": [
        {
          "indexed": false,
          "internalType": "uint256",
          "name": "newEndTime",
          "type": "uint256"
        }
      ],
      "name": "AuctionExtended",
      "type": "event"
    },
    {
      "anonymous": false,
      "inputs": [
        {
          "indexed": true,
          "internalType": "address",
          "name": "bidder",
          "type": "address"
        },
        {
          "indexed": false,
          "internalType": "uint256",
          "name": "amount",
          "type": "uint256"
        }
      ],
      "name": "HighestBidIncreased",
      "type": "event"
    },
    {
      "anonymous": false,
      "inputs": [
        {
          "indexed": true,
          "internalType": "address",
          "name": "who",
          "type": "address"
        },
        {
          "indexed": false,
          "internalType": "uint256",
          "name": "amount",
          "type": "uint256"
        }
      ],
      "name": "WithdrawFailed",
      "type": "event"
    },
    {
      "anonymous": false,
      "inputs": [
        {
          "indexed": true,
          "internalType": "address",
          "name": "who",
          "type": "address"
        },
        {
          "indexed": false,
          "internalType": "uint256",
          "name": "amount",
          "type": "uint256"
        }
      ],
      "name": "Withdrawn",
      "type": "event"
    },
    {
      "inputs": [],
      "name": "auctionStarted",
      "outputs": [
        {
          "internalType": "bool",
          "name": "",
          "type": "bool"
        }
      ],
      "stateMutability": "view",
      "type": "function",
      "constant": true
    },
    {
      "inputs": [],
      "name": "endTime",
      "outputs": [
        {
          "internalType": "uint256",
          "name": "",
          "type": "uint256"
        }
      ],
      "stateMutability": "view",
      "type": "function",
      "constant": true
    },
    {
      "inputs": [],
      "name": "ended",
      "outputs": [
        {
          "internalType": "bool",
          "name": "",
          "type": "bool"
        }
      ],
      "stateMutability": "view",
      "type": "function",
      "constant": true
    },
    {
      "inputs": [],
      "name": "extensionTime",
      "outputs": [
        {
          "internalType": "uint256",
          "name": "",
          "type": "uint256"
        }
      ],
      "stateMutability": "view",
      "type": "function",
      "constant": true
    },
    {
      "inputs": [],
      "name": "highestBid",
      "outputs": [
        {
          "internalType": "uint256",
          "name": "",
          "type": "uint256"
        }
      ],
      "stateMutability": "view",
      "type": "function",
      "constant": true
    },
    {
      "inputs": [],
      "name": "highestBidder",
      "outputs": [
        {
          "internalType": "address",
          "name": "",
          "type": "address"
        }
      ],
      "stateMutability": "view",
      "type": "function",
      "constant": true
    },
    {
      "inputs": [],
      "name": "maxBid",
      "outputs": [
        {
          "internalType": "uint256",
          "name": "",
          "type": "uint256"
        }
      ],
      "stateMutability": "view",
      "type": "function",
      "constant": true
    },
    {
      "inputs": [],
      "name": "minIncrement",
      "outputs": [
        {
          "internalType": "uint256",
          "name": "",
          "type": "uint256"
        }
      ],
      "stateMutability": "view",
      "type": "function",
      "constant": true
    },
    {
      "inputs": [
        {
          "internalType": "uint256",
          "name": "",
          "type": "uint256"
        }
      ],
      "name": "pendingParties",
      "outputs": [
        {
          "internalType": "address",
          "name": "",
          "type": "address"
        }
      ],
      "stateMutability": "view",
      "type": "function",
      "constant": true
    },
    {
      "inputs": [
        {
          "internalType": "address",
          "name": "",
          "type": "address"
        }
      ],
      "name": "pendingReturns",
      "outputs": [
        {
          "internalType": "uint256",
          "name": "",
          "type": "uint256"
        }
      ],
      "stateMutability": "view",
      "type": "function",
      "constant": true
    },
    {
      "inputs": [],
      "name": "seller",
      "outputs": [
        {
          "internalType": "address payable",
          "name": "",
          "type": "address"
        }
      ],
      "stateMutability": "view",
      "type": "function",
      "constant": true
    },
    {
      "inputs": [],
      "name": "startTime",
      "outputs": [
        {
          "internalType": "uint256",
          "name": "",
          "type": "uint256"
        }
      ],
      "stateMutability": "view",
      "type": "function",
      "constant": true
    },
    {
      "stateMutability": "payable",
      "type": "receive",
      "payable": true
    },
    {
      "inputs": [
        {
          "internalType": "uint256",
          "name": "_biddingTime",
          "type": "uint256"
        },
        {
          "internalType": "uint256",
          "name": "_minIncrement",
          "type": "uint256"
        },
        {
          "internalType": "uint256",
          "name": "_extensionTime",
          "type": "uint256"
        },
        {
          "internalType": "uint256",
          "name": "_maxBid",
          "type": "uint256"
        }
      ],
      "name": "startAuction",
      "outputs": [],
      "stateMutability": "nonpayable",
      "type": "function"
    },
    {
      "inputs": [],
      "name": "bid",
      "outputs": [],
      "stateMutability": "payable",
      "type": "function",
      "payable": true
    },
    {
      "inputs": [],
      "name": "withdraw",
      "outputs": [
        {
          "internalType": "bool",
          "name": "",
          "type": "bool"
        }
      ],
      "stateMutability": "nonpayable",
      "type": "function"
    },
    {
      "inputs": [],
      "name": "endAuction",
      "outputs": [],
      "stateMutability": "nonpayable",
      "type": "function"
    },
    {
      "inputs": [],
      "name": "cancelAuction",
      "outputs": [],
      "stateMutability": "nonpayable",
      "type": "function"
    },
    {
      "inputs": [],
      "name": "getPendingParties",
      "outputs": [
        {
          "internalType": "address[]",
          "name": "",
          "type": "address[]"
        }
      ],
      "stateMutability": "view",
      "type": "function",
      "constant": true
    }
  ],
  "bytecode": "0x60806040523480156200001157600080fd5b5060405162002115380380620021158339818101604052810190620000379190620000f1565b336000806101000a81548173ffffffffffffffffffffffffffffffffffffffff021916908373ffffffffffffffffffffffffffffffffffffffff1602179055504260018190555083426200008c919062000192565b60028190555082600581905550816006819055508060078190555050505050620001cd565b600080fd5b6000819050919050565b620000cb81620000b6565b8114620000d757600080fd5b50565b600081519050620000eb81620000c0565b92915050565b600080600080608085870312156200010e576200010d620000b1565b5b60006200011e87828801620000da565b94505060206200013187828801620000da565b93505060406200014487828801620000da565b92505060606200015787828801620000da565b91505092959194509250565b7f4e487b7100000000000000000000000000000000000000000000000000000000600052601160045260246000fd5b60006200019f82620000b6565b9150620001ac83620000b6565b9250828201905080821115620001c757620001c662000163565b5b92915050565b611f3880620001dd6000396000f3fe60806040526004361061010d5760003560e01c80638afcb14d116100955780639882e414116100645780639882e4141461036e578063d57bde7914610399578063ee2679bc146103c4578063eeed1b26146103ef578063fe67a54b1461041a5761014d565b80638afcb14d146102d85780638d2c4488146103035780638fa8b7901461032c57806391f90157146103435761014d565b80633197cbb6116100dc5780633197cbb6146101ef5780633ccfd60b1461021a5780635e36a6311461024557806374b11d8a1461028257806378e97925146102ad5761014d565b806308551a531461015257806312fa6feb1461017d5780631998aeef146101a857806326b387bb146101b25761014d565b3661014d576040517f08c379a0000000000000000000000000000000000000000000000000000000008152600401610144906116a4565b60405180910390fd5b600080fd5b34801561015e57600080fd5b50610167610431565b6040516101749190611705565b60405180910390f35b34801561018957600080fd5b50610192610455565b60405161019f919061173b565b60405180910390f35b6101b0610468565b005b3480156101be57600080fd5b506101d960048036038101906101d49190611799565b61089f565b6040516101e691906117df565b60405180910390f35b3480156101fb57600080fd5b506102046108b7565b60405161021191906117df565b60405180910390f35b34801561022657600080fd5b5061022f6108bd565b60405161023c919061173b565b60405180910390f35b34801561025157600080fd5b5061026c60048036038101906102679190611826565b610b77565b6040516102799190611862565b60405180910390f35b34801561028e57600080fd5b50610297610bb6565b6040516102a491906117df565b60405180910390f35b3480156102b957600080fd5b506102c2610bbc565b6040516102cf91906117df565b60405180910390f35b3480156102e457600080fd5b506102ed610bc2565b6040516102fa91906117df565b60405180910390f35b34801561030f57600080fd5b5061032a6004803603810190610325919061187d565b610bc8565b005b34801561033857600080fd5b50610341610d10565b005b34801561034f57600080fd5b506103586110bd565b6040516103659190611862565b60405180910390f35b34801561037a57600080fd5b506103836110e3565b60405161039091906119a2565b60405180910390f35b3480156103a557600080fd5b506103ae611171565b6040516103bb91906117df565b60405180910390f35b3480156103d057600080fd5b506103d9611177565b6040516103e6919061173b565b60405180910390f35b3480156103fb57600080fd5b5061040461118a565b60405161041191906117df565b60405180910390f35b34801561042657600080fd5b5061042f611190565b005b60008054906101000a900473ffffffffffffffffffffffffffffffffffffffff1681565b600360009054906101000a900460ff1681565b600360019054906101000a900460ff166104b7576040517f08c379a00000000000000000000000000000000000000000000000000000000081526004016104ae90611a10565b60405180910390fd5b60025442106104fb576040517f08c379a00000000000000000000000000000000000000000000000000000000081526004016104f290611a7c565b60405180910390fd5b600060055460045461050d9190611acb565b905080341015610552576040517f08c379a000000000000000000000000000000000000000000000000000000000815260040161054990611b4b565b60405180910390fd5b6000600754146105a2576007543411156105a1576040517f08c379a000000000000000000000000000000000000000000000000000000000815260040161059890611bb7565b60405180910390fd5b5b60006004541461079a5760045460086000600360029054906101000a900473ffffffffffffffffffffffffffffffffffffffff1673ffffffffffffffffffffffffffffffffffffffff1673ffffffffffffffffffffffffffffffffffffffff168152602001908152602001600020600082825461061f9190611acb565b9250508190555060096000600360029054906101000a900473ffffffffffffffffffffffffffffffffffffffff1673ffffffffffffffffffffffffffffffffffffffff1673ffffffffffffffffffffffffffffffffffffffff16815260200190815260200160002060009054906101000a900460ff1661079957600160096000600360029054906101000a900473ffffffffffffffffffffffffffffffffffffffff1673ffffffffffffffffffffffffffffffffffffffff1673ffffffffffffffffffffffffffffffffffffffff16815260200190815260200160002060006101000a81548160ff021916908315150217905550600a600360029054906101000a900473ffffffffffffffffffffffffffffffffffffffff169080600181540180825580915050600190039060005260206000200160009091909190916101000a81548173ffffffffffffffffffffffffffffffffffffffff021916908373ffffffffffffffffffffffffffffffffffffffff1602179055505b5b33600360026101000a81548173ffffffffffffffffffffffffffffffffffffffff021916908373ffffffffffffffffffffffffffffffffffffffff16021790555034600481905550600654426002546107f39190611bd7565b101561084e576006546002600082825461080d9190611acb565b925050819055507fc2b459809119087ca9d2bc10dea53a51b7d848b1a11075db037bdca58292c3e860025460405161084591906117df565b60405180910390a15b3373ffffffffffffffffffffffffffffffffffffffff167ff4757a49b326036464bec6fe419a4ae38c8a02ce3e68bf0809674f6aab8ad3003460405161089491906117df565b60405180910390a250565b60086020528060005260406000206000915090505481565b60025481565b6000600b60009054906101000a900460ff161561090f576040517f08c379a000000000000000000000000000000000000000000000000000000000815260040161090690611c57565b60405180910390fd5b6001600b60006101000a81548160ff0219169083151502179055506000600860003373ffffffffffffffffffffffffffffffffffffffff1673ffffffffffffffffffffffffffffffffffffffff168152602001908152602001600020549050600081116109b1576040517f08c379a00000000000000000000000000000000000000000000000000000000081526004016109a890611cc3565b60405180910390fd5b6000600860003373ffffffffffffffffffffffffffffffffffffffff1673ffffffffffffffffffffffffffffffffffffffff1681526020019081526020016000208190555060003373ffffffffffffffffffffffffffffffffffffffff1682604051610a1c90611d14565b60006040518083038185875af1925050503d8060008114610a59576040519150601f19603f3d011682016040523d82523d6000602084013e610a5e565b606091505b5050905080610b045781600860003373ffffffffffffffffffffffffffffffffffffffff1673ffffffffffffffffffffffffffffffffffffffff168152602001908152602001600020819055503373ffffffffffffffffffffffffffffffffffffffff167fa2269912b47133fae1d7f448c9284ea248951ac29b8c7c41d301f8721a38d10d83604051610af191906117df565b60405180910390a2600092505050610b59565b3373ffffffffffffffffffffffffffffffffffffffff167f7084f5476618d8e60b11ef0d7d3f06914655adb8793e28ff7f018d4c76d505d583604051610b4a91906117df565b60405180910390a26001925050505b6000600b60006101000a81548160ff02191690831515021790555090565b600a8181548110610b8757600080fd5b906000526020600020016000915054906101000a900473ffffffffffffffffffffffffffffffffffffffff1681565b60075481565b60015481565b60055481565b60008054906101000a900473ffffffffffffffffffffffffffffffffffffffff1673ffffffffffffffffffffffffffffffffffffffff163373ffffffffffffffffffffffffffffffffffffffff1614610c56576040517f08c379a0000000000000000000000000000000000000000000000000000000008152600401610c4d90611d75565b60405180910390fd5b600360019054906101000a900460ff1615610ca6576040517f08c379a0000000000000000000000000000000000000000000000000000000008152600401610c9d90611de1565b60405180910390fd5b426001819055508342610cb99190611acb565b6002819055508260058190555081600681905550806007819055506001600360016101000a81548160ff0219169083151502179055506000600360006101000a81548160ff02191690831515021790555050505050565b60008054906101000a900473ffffffffffffffffffffffffffffffffffffffff1673ffffffffffffffffffffffffffffffffffffffff163373ffffffffffffffffffffffffffffffffffffffff1614610d9e576040517f08c379a0000000000000000000000000000000000000000000000000000000008152600401610d9590611d75565b60405180910390fd5b600b60009054906101000a900460ff1615610dee576040517f08c379a0000000000000000000000000000000000000000000000000000000008152600401610de590611c57565b60405180910390fd5b6001600b60006101000a81548160ff021916908315150217905550600360009054906101000a900460ff1615610e59576040517f08c379a0000000000000000000000000000000000000000000000000000000008152600401610e5090611e4d565b60405180910390fd5b6001600360006101000a81548160ff0219169083151502179055507fa5fb31e47bd1eca58bf14a3312d5e6aeafdc4ee787c8ed348c15c2b092324d9360405160405180910390a16000600454146110a05760045460086000600360029054906101000a900473ffffffffffffffffffffffffffffffffffffffff1673ffffffffffffffffffffffffffffffffffffffff1673ffffffffffffffffffffffffffffffffffffffff1681526020019081526020016000206000828254610f1d9190611acb565b9250508190555060096000600360029054906101000a900473ffffffffffffffffffffffffffffffffffffffff1673ffffffffffffffffffffffffffffffffffffffff1673ffffffffffffffffffffffffffffffffffffffff16815260200190815260200160002060009054906101000a900460ff1661109757600160096000600360029054906101000a900473ffffffffffffffffffffffffffffffffffffffff1673ffffffffffffffffffffffffffffffffffffffff1673ffffffffffffffffffffffffffffffffffffffff16815260200190815260200160002060006101000a81548160ff021916908315150217905550600a600360029054906101000a900473ffffffffffffffffffffffffffffffffffffffff169080600181540180825580915050600190039060005260206000200160009091909190916101000a81548173ffffffffffffffffffffffffffffffffffffffff021916908373ffffffffffffffffffffffffffffffffffffffff1602179055505b60006004819055505b6000600b60006101000a81548160ff021916908315150217905550565b600360029054906101000a900473ffffffffffffffffffffffffffffffffffffffff1681565b6060600a80548060200260200160405190810160405280929190818152602001828054801561116757602002820191906000526020600020905b8160009054906101000a900473ffffffffffffffffffffffffffffffffffffffff1673ffffffffffffffffffffffffffffffffffffffff168152602001906001019080831161111d575b5050505050905090565b60045481565b600360019054906101000a900460ff1681565b60065481565b60008054906101000a900473ffffffffffffffffffffffffffffffffffffffff1673ffffffffffffffffffffffffffffffffffffffff163373ffffffffffffffffffffffffffffffffffffffff161461121e576040517f08c379a000000000000000000000000000000000000000000000000000000000815260040161121590611d75565b60405180910390fd5b600b60009054906101000a900460ff161561126e576040517f08c379a000000000000000000000000000000000000000000000000000000000815260040161126590611c57565b60405180910390fd5b6001600b60006101000a81548160ff0219169083151502179055506002544210156112ce576040517f08c379a00000000000000000000000000000000000000000000000000000000081526004016112c590611eb9565b60405180910390fd5b600360009054906101000a900460ff161561131e576040517f08c379a000000000000000000000000000000000000000000000000000000000815260040161131590611e4d565b60405180910390fd5b6001600360006101000a81548160ff0219169083151502179055507fdaec4582d5d9595688c8c98545fdd1c696d41c6aeaeb636737e84ed2f5c00eda600360029054906101000a900473ffffffffffffffffffffffffffffffffffffffff1660045460405161138e929190611ed9565b60405180910390a160006004549050600060048190555060008111156116295760008060009054906101000a900473ffffffffffffffffffffffffffffffffffffffff1673ffffffffffffffffffffffffffffffffffffffff16826040516113f590611d14565b60006040518083038185875af1925050503d8060008114611432576040519150601f19603f3d011682016040523d82523d6000602084013e611437565b606091505b50509050806116275781600860008060009054906101000a900473ffffffffffffffffffffffffffffffffffffffff1673ffffffffffffffffffffffffffffffffffffffff1673ffffffffffffffffffffffffffffffffffffffff16815260200190815260200160002060008282546114b09190611acb565b92505081905550600960008060009054906101000a900473ffffffffffffffffffffffffffffffffffffffff1673ffffffffffffffffffffffffffffffffffffffff1673ffffffffffffffffffffffffffffffffffffffff16815260200190815260200160002060009054906101000a900460ff16611626576001600960008060009054906101000a900473ffffffffffffffffffffffffffffffffffffffff1673ffffffffffffffffffffffffffffffffffffffff1673ffffffffffffffffffffffffffffffffffffffff16815260200190815260200160002060006101000a81548160ff021916908315150217905550600a60008054906101000a900473ffffffffffffffffffffffffffffffffffffffff169080600181540180825580915050600190039060005260206000200160009091909190916101000a81548173ffffffffffffffffffffffffffffffffffffffff021916908373ffffffffffffffffffffffffffffffffffffffff1602179055505b5b505b506000600b60006101000a81548160ff021916908315150217905550565b600082825260208201905092915050565b7f446972656374206465706f73697473206e6f7420616363657074656400000000600082015250565b600061168e601c83611647565b915061169982611658565b602082019050919050565b600060208201905081810360008301526116bd81611681565b9050919050565b600073ffffffffffffffffffffffffffffffffffffffff82169050919050565b60006116ef826116c4565b9050919050565b6116ff816116e4565b82525050565b600060208201905061171a60008301846116f6565b92915050565b60008115159050919050565b61173581611720565b82525050565b6000602082019050611750600083018461172c565b92915050565b600080fd5b6000611766826116c4565b9050919050565b6117768161175b565b811461178157600080fd5b50565b6000813590506117938161176d565b92915050565b6000602082840312156117af576117ae611756565b5b60006117bd84828501611784565b91505092915050565b6000819050919050565b6117d9816117c6565b82525050565b60006020820190506117f460008301846117d0565b92915050565b611803816117c6565b811461180e57600080fd5b50565b600081359050611820816117fa565b92915050565b60006020828403121561183c5761183b611756565b5b600061184a84828501611811565b91505092915050565b61185c8161175b565b82525050565b60006020820190506118776000830184611853565b92915050565b6000806000806080858703121561189757611896611756565b5b60006118a587828801611811565b94505060206118b687828801611811565b93505060406118c787828801611811565b92505060606118d887828801611811565b91505092959194509250565b600081519050919050565b600082825260208201905092915050565b6000819050602082019050919050565b6119198161175b565b82525050565b600061192b8383611910565b60208301905092915050565b6000602082019050919050565b600061194f826118e4565b61195981856118ef565b935061196483611900565b8060005b8381101561199557815161197c888261191f565b975061198783611937565b925050600181019050611968565b5085935050505092915050565b600060208201905081810360008301526119bc8184611944565b905092915050565b7f41756374696f6e206e6f74207374617274656400000000000000000000000000600082015250565b60006119fa601383611647565b9150611a05826119c4565b602082019050919050565b60006020820190508181036000830152611a29816119ed565b9050919050565b7f41756374696f6e20656e64656400000000000000000000000000000000000000600082015250565b6000611a66600d83611647565b9150611a7182611a30565b602082019050919050565b60006020820190508181036000830152611a9581611a59565b9050919050565b7f4e487b7100000000000000000000000000000000000000000000000000000000600052601160045260246000fd5b6000611ad6826117c6565b9150611ae1836117c6565b9250828201905080821115611af957611af8611a9c565b5b92915050565b7f4269642062656c6f77206d696e20696e6372656d656e74000000000000000000600082015250565b6000611b35601783611647565b9150611b4082611aff565b602082019050919050565b60006020820190508181036000830152611b6481611b28565b9050919050565b7f41626f7665206d61784269640000000000000000000000000000000000000000600082015250565b6000611ba1600c83611647565b9150611bac82611b6b565b602082019050919050565b60006020820190508181036000830152611bd081611b94565b9050919050565b6000611be2826117c6565b9150611bed836117c6565b9250828203905081811115611c0557611c04611a9c565b5b92915050565b7f5265656e7472616e742063616c6c000000000000000000000000000000000000600082015250565b6000611c41600e83611647565b9150611c4c82611c0b565b602082019050919050565b60006020820190508181036000830152611c7081611c34565b9050919050565b7f4e6f2066756e6473000000000000000000000000000000000000000000000000600082015250565b6000611cad600883611647565b9150611cb882611c77565b602082019050919050565b60006020820190508181036000830152611cdc81611ca0565b9050919050565b600081905092915050565b50565b6000611cfe600083611ce3565b9150611d0982611cee565b600082019050919050565b6000611d1f82611cf1565b9150819050919050565b7f4f6e6c792073656c6c6572000000000000000000000000000000000000000000600082015250565b6000611d5f600b83611647565b9150611d6a82611d29565b602082019050919050565b60006020820190508181036000830152611d8e81611d52565b9050919050565b7f41756374696f6e20616c72656164792073746172746564000000000000000000600082015250565b6000611dcb601783611647565b9150611dd682611d95565b602082019050919050565b60006020820190508181036000830152611dfa81611dbe565b9050919050565b7f416c726561647920656e64656400000000000000000000000000000000000000600082015250565b6000611e37600d83611647565b9150611e4282611e01565b602082019050919050565b60006020820190508181036000830152611e6681611e2a565b9050919050565b7f41756374696f6e206e6f742079657420656e6465640000000000000000000000600082015250565b6000611ea3601583611647565b9150611eae82611e6d565b602082019050919050565b60006020820190508181036000830152611ed281611e96565b9050919050565b6000604082019050611eee6000830185611853565b611efb60208301846117d0565b939250505056fea26469706673582212201bb915e94e2938ae2800560419021b69f15543d05460d936ced37486ea9eb30c64736f6c63430008110033",
  "immutableReferences": {},
  "source": "// SPDX-License-Identifier: MIT\npragma solidity ^0.8.17;\n\ncontract SecureAuction {\n    address payable public seller;\n    uint public startTime;\n    uint public endTime;\n    bool public ended;\n    bool public auctionStarted;  // <-- add this\n\n    address public highestBidder;\n    uint public highestBid;\n\n    uint public minIncrement;\n    uint public extensionTime;\n    uint public maxBid;\n\n    mapping(address => uint) public pendingReturns;\n    mapping(address => bool) private hasPendingRecorded;\n    address[] public pendingParties;\n\n    bool private locked;\n\n    event HighestBidIncreased(address indexed bidder, uint amount);\n    event AuctionExtended(uint newEndTime);\n    event AuctionEnded(address winner, uint amount);\n    event AuctionCancelled();\n    event Withdrawn(address indexed who, uint amount);\n    event WithdrawFailed(address indexed who, uint amount);\n\n    modifier onlySeller() {\n        require(msg.sender == seller, \"Only seller\");\n        _;\n    }\n\n    modifier noReentrant() {\n        require(!locked, \"Reentrant call\");\n        locked = true;\n        _;\n        locked = false;\n    }\n\n    constructor(\n        uint _biddingTime,\n        uint _minIncrement,\n        uint _extensionTime,\n        uint _maxBid\n    ) {\n        seller = payable(msg.sender);\n        startTime = block.timestamp;\n        endTime = block.timestamp + _biddingTime;\n        minIncrement = _minIncrement;\n        extensionTime = _extensionTime;\n        maxBid = _maxBid;\n    }\n\n    function startAuction(\n        uint _biddingTime,\n        uint _minIncrement,\n        uint _extensionTime,\n        uint _maxBid\n    ) public onlySeller {\n        require(!auctionStarted, \"Auction already started\");\n\n        startTime = block.timestamp;\n        endTime = block.timestamp + _biddingTime;\n        minIncrement = _minIncrement;\n        extensionTime = _extensionTime;\n        maxBid = _maxBid;\n        auctionStarted = true;\n        ended = false;\n    }\n\n    function bid() external payable {\n        require(auctionStarted, \"Auction not started\");\n        require(block.timestamp < endTime, \"Auction ended\");\n\n        uint required = highestBid + minIncrement;\n        require(msg.value >= required, \"Bid below min increment\");\n        if (maxBid != 0) {\n            require(msg.value <= maxBid, \"Above maxBid\");\n        }\n\n        if (highestBid != 0) {\n            pendingReturns[highestBidder] += highestBid;\n            if (!hasPendingRecorded[highestBidder]) {\n                hasPendingRecorded[highestBidder] = true;\n                pendingParties.push(highestBidder);\n            }\n        }\n\n        highestBidder = msg.sender;\n        highestBid = msg.value;\n\n        if (endTime - block.timestamp < extensionTime) {\n            endTime += extensionTime;\n            emit AuctionExtended(endTime);\n        }\n\n        emit HighestBidIncreased(msg.sender, msg.value);\n    }\n\n    function withdraw() external noReentrant returns (bool) {\n        uint amount = pendingReturns[msg.sender];\n        require(amount > 0, \"No funds\");\n        pendingReturns[msg.sender] = 0;\n        (bool success, ) = payable(msg.sender).call{value: amount}(\"\");\n        if (!success) {\n            pendingReturns[msg.sender] = amount;\n            emit WithdrawFailed(msg.sender, amount);\n            return false;\n        }\n        emit Withdrawn(msg.sender, amount);\n        return true;\n    }\n\n    function endAuction() external onlySeller noReentrant {\n        require(block.timestamp >= endTime, \"Auction not yet ended\");\n        require(!ended, \"Already ended\");\n        ended = true;\n        emit AuctionEnded(highestBidder, highestBid);\n        uint amount = highestBid;\n        highestBid = 0;\n        if (amount > 0) {\n            (bool success, ) = seller.call{value: amount}(\"\");\n            if (!success) {\n                pendingReturns[seller] += amount;\n                if (!hasPendingRecorded[seller]) {\n                    hasPendingRecorded[seller] = true;\n                    pendingParties.push(seller);\n                }\n            }\n        }\n    }\n\n    function cancelAuction() external onlySeller noReentrant {\n        require(!ended, \"Already ended\");\n        ended = true;\n        emit AuctionCancelled();\n        if (highestBid != 0) {\n            pendingReturns[highestBidder] += highestBid;\n            if (!hasPendingRecorded[highestBidder]) {\n                hasPendingRecorded[highestBidder] = true;\n                pendingParties.push(highestBidder);\n            }\n            highestBid = 0;\n        }\n    }\n\n    function getPendingParties() external view returns (address[] memory) {\n        return pendingParties;\n    }\n\n    receive() external payable {\n        revert(\"Direct deposits not accepted\");\n    }\n}\n",
  "sourcePath": "C:\\Users\\kavin\\Desktop\\Bchain\\bidding_system\\smart-contract\\contracts\\SecureAuction.sol",
  "compiler": {
    "name": "solc",
    "version": "0.8.17+commit.8df45f5f.Emscripten.clang"
  },
  "schemaVersion": "3.4.16",
  "updatedAt": "2025-12-10T07:56:21.474Z",
  "networkType": "ethereum",
  "devdoc": {
    "kind": "dev",
    "methods": {},
    "version": 1
  },
  "userdoc": {
    "kind": "user",
    "methods": {},
    "version": 1
  }
}