{
  "contractName": "SecureAuction",
  "abi": [
    {
      "inputs": [],
      "stateMutability": "nonpayable",
      "type": "constructor"
    },
    {
      "anonymous": false,
      "inputs": [],
      "name": "AuctionCancelled",
      "type": "event"
    },
    {
      "anonymous": false,
      "inputs": [
        {
          "indexed": false,
          "internalType": "address",
          "name": "winner",
          "type": "address"
        },
        {
          "indexed": false,
          "internalType": "uint256",
          "name": "amount",
          "type": "uint256"
        }
      ],
      "name": "AuctionEnded",
      "type": "event"
    },
    {
      "anonymous": false,
      "inputs": [
        {
          "indexed": false,
          "internalType": "uint256",
          "name": "newEndTime",
          "type": "uint256"
        }
      ],
      "name": "AuctionExtended",
      "type": "event"
    },
    {
      "anonymous": false,
      "inputs": [
        {
          "indexed": true,
          "internalType": "address",
          "name": "bidder",
          "type": "address"
        },
        {
          "indexed": false,
          "internalType": "uint256",
          "name": "amount",
          "type": "uint256"
        }
      ],
      "name": "HighestBidIncreased",
      "type": "event"
    },
    {
      "anonymous": false,
      "inputs": [
        {
          "indexed": true,
          "internalType": "address",
          "name": "who",
          "type": "address"
        },
        {
          "indexed": false,
          "internalType": "uint256",
          "name": "amount",
          "type": "uint256"
        }
      ],
      "name": "WithdrawFailed",
      "type": "event"
    },
    {
      "anonymous": false,
      "inputs": [
        {
          "indexed": true,
          "internalType": "address",
          "name": "who",
          "type": "address"
        },
        {
          "indexed": false,
          "internalType": "uint256",
          "name": "amount",
          "type": "uint256"
        }
      ],
      "name": "Withdrawn",
      "type": "event"
    },
    {
      "inputs": [],
      "name": "auctionStarted",
      "outputs": [
        {
          "internalType": "bool",
          "name": "",
          "type": "bool"
        }
      ],
      "stateMutability": "view",
      "type": "function",
      "constant": true
    },
    {
      "inputs": [],
      "name": "endTime",
      "outputs": [
        {
          "internalType": "uint256",
          "name": "",
          "type": "uint256"
        }
      ],
      "stateMutability": "view",
      "type": "function",
      "constant": true
    },
    {
      "inputs": [],
      "name": "ended",
      "outputs": [
        {
          "internalType": "bool",
          "name": "",
          "type": "bool"
        }
      ],
      "stateMutability": "view",
      "type": "function",
      "constant": true
    },
    {
      "inputs": [],
      "name": "extensionTime",
      "outputs": [
        {
          "internalType": "uint256",
          "name": "",
          "type": "uint256"
        }
      ],
      "stateMutability": "view",
      "type": "function",
      "constant": true
    },
    {
      "inputs": [],
      "name": "highestBid",
      "outputs": [
        {
          "internalType": "uint256",
          "name": "",
          "type": "uint256"
        }
      ],
      "stateMutability": "view",
      "type": "function",
      "constant": true
    },
    {
      "inputs": [],
      "name": "highestBidder",
      "outputs": [
        {
          "internalType": "address",
          "name": "",
          "type": "address"
        }
      ],
      "stateMutability": "view",
      "type": "function",
      "constant": true
    },
    {
      "inputs": [],
      "name": "maxBid",
      "outputs": [
        {
          "internalType": "uint256",
          "name": "",
          "type": "uint256"
        }
      ],
      "stateMutability": "view",
      "type": "function",
      "constant": true
    },
    {
      "inputs": [],
      "name": "minIncrement",
      "outputs": [
        {
          "internalType": "uint256",
          "name": "",
          "type": "uint256"
        }
      ],
      "stateMutability": "view",
      "type": "function",
      "constant": true
    },
    {
      "inputs": [
        {
          "internalType": "uint256",
          "name": "",
          "type": "uint256"
        }
      ],
      "name": "pendingParties",
      "outputs": [
        {
          "internalType": "address",
          "name": "",
          "type": "address"
        }
      ],
      "stateMutability": "view",
      "type": "function",
      "constant": true
    },
    {
      "inputs": [
        {
          "internalType": "address",
          "name": "",
          "type": "address"
        }
      ],
      "name": "pendingReturns",
      "outputs": [
        {
          "internalType": "uint256",
          "name": "",
          "type": "uint256"
        }
      ],
      "stateMutability": "view",
      "type": "function",
      "constant": true
    },
    {
      "inputs": [],
      "name": "seller",
      "outputs": [
        {
          "internalType": "address payable",
          "name": "",
          "type": "address"
        }
      ],
      "stateMutability": "view",
      "type": "function",
      "constant": true
    },
    {
      "inputs": [],
      "name": "startTime",
      "outputs": [
        {
          "internalType": "uint256",
          "name": "",
          "type": "uint256"
        }
      ],
      "stateMutability": "view",
      "type": "function",
      "constant": true
    },
    {
      "stateMutability": "payable",
      "type": "receive",
      "payable": true
    },
    {
      "inputs": [
        {
          "internalType": "uint256",
          "name": "_biddingTime",
          "type": "uint256"
        },
        {
          "internalType": "uint256",
          "name": "_minIncrement",
          "type": "uint256"
        },
        {
          "internalType": "uint256",
          "name": "_extensionTime",
          "type": "uint256"
        },
        {
          "internalType": "uint256",
          "name": "_maxBid",
          "type": "uint256"
        }
      ],
      "name": "startAuction",
      "outputs": [],
      "stateMutability": "nonpayable",
      "type": "function"
    },
    {
      "inputs": [],
      "name": "bid",
      "outputs": [],
      "stateMutability": "payable",
      "type": "function",
      "payable": true
    },
    {
      "inputs": [],
      "name": "withdraw",
      "outputs": [
        {
          "internalType": "bool",
          "name": "",
          "type": "bool"
        }
      ],
      "stateMutability": "nonpayable",
      "type": "function"
    },
    {
      "inputs": [],
      "name": "endAuction",
      "outputs": [],
      "stateMutability": "nonpayable",
      "type": "function"
    },
    {
      "inputs": [],
      "name": "cancelAuction",
      "outputs": [],
      "stateMutability": "nonpayable",
      "type": "function"
    },
    {
      "inputs": [],
      "name": "getPendingParties",
      "outputs": [
        {
          "internalType": "address[]",
          "name": "",
          "type": "address[]"
        }
      ],
      "stateMutability": "view",
      "type": "function",
      "constant": true
    }
  ],
  "bytecode": "0x608060405234801561001057600080fd5b50336000806101000a81548173ffffffffffffffffffffffffffffffffffffffff021916908373ffffffffffffffffffffffffffffffffffffffff1602179055506000600360016101000a81548160ff0219169083151502179055506000600360006101000a81548160ff02191690831515021790555061225f806100966000396000f3fe60806040526004361061010d5760003560e01c80638afcb14d116100955780639882e414116100645780639882e4141461036e578063d57bde7914610399578063ee2679bc146103c4578063eeed1b26146103ef578063fe67a54b1461041a5761014d565b80638afcb14d146102d85780638d2c4488146103035780638fa8b7901461032c57806391f90157146103435761014d565b80633197cbb6116100dc5780633197cbb6146101ef5780633ccfd60b1461021a5780635e36a6311461024557806374b11d8a1461028257806378e97925146102ad5761014d565b806308551a531461015257806312fa6feb1461017d5780631998aeef146101a857806326b387bb146101b25761014d565b3661014d576040517f08c379a000000000000000000000000000000000000000000000000000000000815260040161014490611887565b60405180910390fd5b600080fd5b34801561015e57600080fd5b50610167610431565b60405161017491906118e8565b60405180910390f35b34801561018957600080fd5b50610192610455565b60405161019f919061191e565b60405180910390f35b6101b0610468565b005b3480156101be57600080fd5b506101d960048036038101906101d4919061197c565b61092d565b6040516101e691906119c2565b60405180910390f35b3480156101fb57600080fd5b50610204610945565b60405161021191906119c2565b60405180910390f35b34801561022657600080fd5b5061022f61094b565b60405161023c919061191e565b60405180910390f35b34801561025157600080fd5b5061026c60048036038101906102679190611a09565b610c05565b6040516102799190611a45565b60405180910390f35b34801561028e57600080fd5b50610297610c44565b6040516102a491906119c2565b60405180910390f35b3480156102b957600080fd5b506102c2610c4a565b6040516102cf91906119c2565b60405180910390f35b3480156102e457600080fd5b506102ed610c50565b6040516102fa91906119c2565b60405180910390f35b34801561030f57600080fd5b5061032a60048036038101906103259190611a60565b610c56565b005b34801561033857600080fd5b50610341610e6e565b005b34801561034f57600080fd5b50610358611236565b6040516103659190611a45565b60405180910390f35b34801561037a57600080fd5b5061038361125c565b6040516103909190611b85565b60405180910390f35b3480156103a557600080fd5b506103ae6112ea565b6040516103bb91906119c2565b60405180910390f35b3480156103d057600080fd5b506103d96112f0565b6040516103e6919061191e565b60405180910390f35b3480156103fb57600080fd5b50610404611303565b60405161041191906119c2565b60405180910390f35b34801561042657600080fd5b5061042f611309565b005b60008054906101000a900473ffffffffffffffffffffffffffffffffffffffff1681565b600360009054906101000a900460ff1681565b600360019054906101000a900460ff166104b7576040517f08c379a00000000000000000000000000000000000000000000000000000000081526004016104ae90611bf3565b60405180910390fd5b60025442106104fb576040517f08c379a00000000000000000000000000000000000000000000000000000000081526004016104f290611c5f565b60405180910390fd5b60008054906101000a900473ffffffffffffffffffffffffffffffffffffffff1673ffffffffffffffffffffffffffffffffffffffff163373ffffffffffffffffffffffffffffffffffffffff1603610589576040517f08c379a000000000000000000000000000000000000000000000000000000000815260040161058090611ccb565b60405180910390fd5b600060055460045461059b9190611d1a565b9050803410156105e0576040517f08c379a00000000000000000000000000000000000000000000000000000000081526004016105d790611d9a565b60405180910390fd5b6000600754146106305760075434111561062f576040517f08c379a000000000000000000000000000000000000000000000000000000000815260040161062690611e06565b60405180910390fd5b5b6000600454146108285760045460086000600360029054906101000a900473ffffffffffffffffffffffffffffffffffffffff1673ffffffffffffffffffffffffffffffffffffffff1673ffffffffffffffffffffffffffffffffffffffff16815260200190815260200160002060008282546106ad9190611d1a565b9250508190555060096000600360029054906101000a900473ffffffffffffffffffffffffffffffffffffffff1673ffffffffffffffffffffffffffffffffffffffff1673ffffffffffffffffffffffffffffffffffffffff16815260200190815260200160002060009054906101000a900460ff1661082757600160096000600360029054906101000a900473ffffffffffffffffffffffffffffffffffffffff1673ffffffffffffffffffffffffffffffffffffffff1673ffffffffffffffffffffffffffffffffffffffff16815260200190815260200160002060006101000a81548160ff021916908315150217905550600a600360029054906101000a900473ffffffffffffffffffffffffffffffffffffffff169080600181540180825580915050600190039060005260206000200160009091909190916101000a81548173ffffffffffffffffffffffffffffffffffffffff021916908373ffffffffffffffffffffffffffffffffffffffff1602179055505b5b33600360026101000a81548173ffffffffffffffffffffffffffffffffffffffff021916908373ffffffffffffffffffffffffffffffffffffffff16021790555034600481905550600654426002546108819190611e26565b10156108dc576006546002600082825461089b9190611d1a565b925050819055507fc2b459809119087ca9d2bc10dea53a51b7d848b1a11075db037bdca58292c3e86002546040516108d391906119c2565b60405180910390a15b3373ffffffffffffffffffffffffffffffffffffffff167ff4757a49b326036464bec6fe419a4ae38c8a02ce3e68bf0809674f6aab8ad3003460405161092291906119c2565b60405180910390a250565b60086020528060005260406000206000915090505481565b60025481565b6000600b60009054906101000a900460ff161561099d576040517f08c379a000000000000000000000000000000000000000000000000000000000815260040161099490611ea6565b60405180910390fd5b6001600b60006101000a81548160ff0219169083151502179055506000600860003373ffffffffffffffffffffffffffffffffffffffff1673ffffffffffffffffffffffffffffffffffffffff16815260200190815260200160002054905060008111610a3f576040517f08c379a0000000000000000000000000000000000000000000000000000000008152600401610a3690611f12565b60405180910390fd5b6000600860003373ffffffffffffffffffffffffffffffffffffffff1673ffffffffffffffffffffffffffffffffffffffff1681526020019081526020016000208190555060003373ffffffffffffffffffffffffffffffffffffffff1682604051610aaa90611f63565b60006040518083038185875af1925050503d8060008114610ae7576040519150601f19603f3d011682016040523d82523d6000602084013e610aec565b606091505b5050905080610b925781600860003373ffffffffffffffffffffffffffffffffffffffff1673ffffffffffffffffffffffffffffffffffffffff168152602001908152602001600020819055503373ffffffffffffffffffffffffffffffffffffffff167fa2269912b47133fae1d7f448c9284ea248951ac29b8c7c41d301f8721a38d10d83604051610b7f91906119c2565b60405180910390a2600092505050610be7565b3373ffffffffffffffffffffffffffffffffffffffff167f7084f5476618d8e60b11ef0d7d3f06914655adb8793e28ff7f018d4c76d505d583604051610bd891906119c2565b60405180910390a26001925050505b6000600b60006101000a81548160ff02191690831515021790555090565b600a8181548110610c1557600080fd5b906000526020600020016000915054906101000a900473ffffffffffffffffffffffffffffffffffffffff1681565b60075481565b60015481565b60055481565b60008054906101000a900473ffffffffffffffffffffffffffffffffffffffff1673ffffffffffffffffffffffffffffffffffffffff163373ffffffffffffffffffffffffffffffffffffffff1614610ce4576040517f08c379a0000000000000000000000000000000000000000000000000000000008152600401610cdb90611fc4565b60405180910390fd5b600360019054906101000a900460ff1615610d34576040517f08c379a0000000000000000000000000000000000000000000000000000000008152600401610d2b90612030565b60405180910390fd5b60008411610d77576040517f08c379a0000000000000000000000000000000000000000000000000000000008152600401610d6e9061209c565b60405180910390fd5b60008311610dba576040517f08c379a0000000000000000000000000000000000000000000000000000000008152600401610db190612108565b60405180910390fd5b426001819055508342610dcd9190611d1a565b6002819055508260058190555081600681905550806007819055506001600360016101000a81548160ff0219169083151502179055506000600360006101000a81548160ff02191690831515021790555060006004819055506000600360026101000a81548173ffffffffffffffffffffffffffffffffffffffff021916908373ffffffffffffffffffffffffffffffffffffffff16021790555050505050565b60008054906101000a900473ffffffffffffffffffffffffffffffffffffffff1673ffffffffffffffffffffffffffffffffffffffff163373ffffffffffffffffffffffffffffffffffffffff1614610efc576040517f08c379a0000000000000000000000000000000000000000000000000000000008152600401610ef390611fc4565b60405180910390fd5b600b60009054906101000a900460ff1615610f4c576040517f08c379a0000000000000000000000000000000000000000000000000000000008152600401610f4390611ea6565b60405180910390fd5b6001600b60006101000a81548160ff021916908315150217905550600360009054906101000a900460ff1615610fb7576040517f08c379a0000000000000000000000000000000000000000000000000000000008152600401610fae90612174565b60405180910390fd5b6001600360006101000a81548160ff0219169083151502179055506000600360016101000a81548160ff0219169083151502179055507fa5fb31e47bd1eca58bf14a3312d5e6aeafdc4ee787c8ed348c15c2b092324d9360405160405180910390a16000600454146112195760045460086000600360029054906101000a900473ffffffffffffffffffffffffffffffffffffffff1673ffffffffffffffffffffffffffffffffffffffff1673ffffffffffffffffffffffffffffffffffffffff16815260200190815260200160002060008282546110969190611d1a565b9250508190555060096000600360029054906101000a900473ffffffffffffffffffffffffffffffffffffffff1673ffffffffffffffffffffffffffffffffffffffff1673ffffffffffffffffffffffffffffffffffffffff16815260200190815260200160002060009054906101000a900460ff1661121057600160096000600360029054906101000a900473ffffffffffffffffffffffffffffffffffffffff1673ffffffffffffffffffffffffffffffffffffffff1673ffffffffffffffffffffffffffffffffffffffff16815260200190815260200160002060006101000a81548160ff021916908315150217905550600a600360029054906101000a900473ffffffffffffffffffffffffffffffffffffffff169080600181540180825580915050600190039060005260206000200160009091909190916101000a81548173ffffffffffffffffffffffffffffffffffffffff021916908373ffffffffffffffffffffffffffffffffffffffff1602179055505b60006004819055505b6000600b60006101000a81548160ff021916908315150217905550565b600360029054906101000a900473ffffffffffffffffffffffffffffffffffffffff1681565b6060600a8054806020026020016040519081016040528092919081815260200182805480156112e057602002820191906000526020600020905b8160009054906101000a900473ffffffffffffffffffffffffffffffffffffffff1673ffffffffffffffffffffffffffffffffffffffff1681526020019060010190808311611296575b5050505050905090565b60045481565b600360019054906101000a900460ff1681565b60065481565b60008054906101000a900473ffffffffffffffffffffffffffffffffffffffff1673ffffffffffffffffffffffffffffffffffffffff163373ffffffffffffffffffffffffffffffffffffffff1614611397576040517f08c379a000000000000000000000000000000000000000000000000000000000815260040161138e90611fc4565b60405180910390fd5b600b60009054906101000a900460ff16156113e7576040517f08c379a00000000000000000000000000000000000000000000000000000000081526004016113de90611ea6565b60405180910390fd5b6001600b60006101000a81548160ff021916908315150217905550600360019054906101000a900460ff16611451576040517f08c379a000000000000000000000000000000000000000000000000000000000815260040161144890611bf3565b60405180910390fd5b600254421015611496576040517f08c379a000000000000000000000000000000000000000000000000000000000815260040161148d906121e0565b60405180910390fd5b600360009054906101000a900460ff16156114e6576040517f08c379a00000000000000000000000000000000000000000000000000000000081526004016114dd90612174565b60405180910390fd5b6001600360006101000a81548160ff0219169083151502179055506000600360016101000a81548160ff0219169083151502179055507fdaec4582d5d9595688c8c98545fdd1c696d41c6aeaeb636737e84ed2f5c00eda600360029054906101000a900473ffffffffffffffffffffffffffffffffffffffff16600454604051611571929190612200565b60405180910390a1600060045490506000600481905550600081111561180c5760008060009054906101000a900473ffffffffffffffffffffffffffffffffffffffff1673ffffffffffffffffffffffffffffffffffffffff16826040516115d890611f63565b60006040518083038185875af1925050503d8060008114611615576040519150601f19603f3d011682016040523d82523d6000602084013e61161a565b606091505b505090508061180a5781600860008060009054906101000a900473ffffffffffffffffffffffffffffffffffffffff1673ffffffffffffffffffffffffffffffffffffffff1673ffffffffffffffffffffffffffffffffffffffff16815260200190815260200160002060008282546116939190611d1a565b92505081905550600960008060009054906101000a900473ffffffffffffffffffffffffffffffffffffffff1673ffffffffffffffffffffffffffffffffffffffff1673ffffffffffffffffffffffffffffffffffffffff16815260200190815260200160002060009054906101000a900460ff16611809576001600960008060009054906101000a900473ffffffffffffffffffffffffffffffffffffffff1673ffffffffffffffffffffffffffffffffffffffff1673ffffffffffffffffffffffffffffffffffffffff16815260200190815260200160002060006101000a81548160ff021916908315150217905550600a60008054906101000a900473ffffffffffffffffffffffffffffffffffffffff169080600181540180825580915050600190039060005260206000200160009091909190916101000a81548173ffffffffffffffffffffffffffffffffffffffff021916908373ffffffffffffffffffffffffffffffffffffffff1602179055505b5b505b506000600b60006101000a81548160ff021916908315150217905550565b600082825260208201905092915050565b7f446972656374206465706f73697473206e6f7420616363657074656400000000600082015250565b6000611871601c8361182a565b915061187c8261183b565b602082019050919050565b600060208201905081810360008301526118a081611864565b9050919050565b600073ffffffffffffffffffffffffffffffffffffffff82169050919050565b60006118d2826118a7565b9050919050565b6118e2816118c7565b82525050565b60006020820190506118fd60008301846118d9565b92915050565b60008115159050919050565b61191881611903565b82525050565b6000602082019050611933600083018461190f565b92915050565b600080fd5b6000611949826118a7565b9050919050565b6119598161193e565b811461196457600080fd5b50565b60008135905061197681611950565b92915050565b60006020828403121561199257611991611939565b5b60006119a084828501611967565b91505092915050565b6000819050919050565b6119bc816119a9565b82525050565b60006020820190506119d760008301846119b3565b92915050565b6119e6816119a9565b81146119f157600080fd5b50565b600081359050611a03816119dd565b92915050565b600060208284031215611a1f57611a1e611939565b5b6000611a2d848285016119f4565b91505092915050565b611a3f8161193e565b82525050565b6000602082019050611a5a6000830184611a36565b92915050565b60008060008060808587031215611a7a57611a79611939565b5b6000611a88878288016119f4565b9450506020611a99878288016119f4565b9350506040611aaa878288016119f4565b9250506060611abb878288016119f4565b91505092959194509250565b600081519050919050565b600082825260208201905092915050565b6000819050602082019050919050565b611afc8161193e565b82525050565b6000611b0e8383611af3565b60208301905092915050565b6000602082019050919050565b6000611b3282611ac7565b611b3c8185611ad2565b9350611b4783611ae3565b8060005b83811015611b78578151611b5f8882611b02565b9750611b6a83611b1a565b925050600181019050611b4b565b5085935050505092915050565b60006020820190508181036000830152611b9f8184611b27565b905092915050565b7f41756374696f6e206e6f74207374617274656400000000000000000000000000600082015250565b6000611bdd60138361182a565b9150611be882611ba7565b602082019050919050565b60006020820190508181036000830152611c0c81611bd0565b9050919050565b7f41756374696f6e20656e64656400000000000000000000000000000000000000600082015250565b6000611c49600d8361182a565b9150611c5482611c13565b602082019050919050565b60006020820190508181036000830152611c7881611c3c565b9050919050565b7f53656c6c65722063616e6e6f7420626964000000000000000000000000000000600082015250565b6000611cb560118361182a565b9150611cc082611c7f565b602082019050919050565b60006020820190508181036000830152611ce481611ca8565b9050919050565b7f4e487b7100000000000000000000000000000000000000000000000000000000600052601160045260246000fd5b6000611d25826119a9565b9150611d30836119a9565b9250828201905080821115611d4857611d47611ceb565b5b92915050565b7f4269642062656c6f77206d696e20696e6372656d656e74000000000000000000600082015250565b6000611d8460178361182a565b9150611d8f82611d4e565b602082019050919050565b60006020820190508181036000830152611db381611d77565b9050919050565b7f41626f7665206d61784269640000000000000000000000000000000000000000600082015250565b6000611df0600c8361182a565b9150611dfb82611dba565b602082019050919050565b60006020820190508181036000830152611e1f81611de3565b9050919050565b6000611e31826119a9565b9150611e3c836119a9565b9250828203905081811115611e5457611e53611ceb565b5b92915050565b7f5265656e7472616e742063616c6c000000000000000000000000000000000000600082015250565b6000611e90600e8361182a565b9150611e9b82611e5a565b602082019050919050565b60006020820190508181036000830152611ebf81611e83565b9050919050565b7f4e6f2066756e6473000000000000000000000000000000000000000000000000600082015250565b6000611efc60088361182a565b9150611f0782611ec6565b602082019050919050565b60006020820190508181036000830152611f2b81611eef565b9050919050565b600081905092915050565b50565b6000611f4d600083611f32565b9150611f5882611f3d565b600082019050919050565b6000611f6e82611f40565b9150819050919050565b7f4f6e6c792073656c6c6572000000000000000000000000000000000000000000600082015250565b6000611fae600b8361182a565b9150611fb982611f78565b602082019050919050565b60006020820190508181036000830152611fdd81611fa1565b9050919050565b7f41756374696f6e20616c72656164792073746172746564000000000000000000600082015250565b600061201a60178361182a565b915061202582611fe4565b602082019050919050565b600060208201905081810360008301526120498161200d565b9050919050565b7f496e76616c69642062696464696e672074696d65000000000000000000000000600082015250565b600061208660148361182a565b915061209182612050565b602082019050919050565b600060208201905081810360008301526120b581612079565b9050919050565b7f496e76616c6964206d696e20696e6372656d656e740000000000000000000000600082015250565b60006120f260158361182a565b91506120fd826120bc565b602082019050919050565b60006020820190508181036000830152612121816120e5565b9050919050565b7f416c726561647920656e64656400000000000000000000000000000000000000600082015250565b600061215e600d8361182a565b915061216982612128565b602082019050919050565b6000602082019050818103600083015261218d81612151565b9050919050565b7f41756374696f6e206e6f742079657420656e6465640000000000000000000000600082015250565b60006121ca60158361182a565b91506121d582612194565b602082019050919050565b600060208201905081810360008301526121f9816121bd565b9050919050565b60006040820190506122156000830185611a36565b61222260208301846119b3565b939250505056fea26469706673582212203e1d74235ff432a88a1a4f9bef37dbe72d62ee4ebcfcc41a4238171b8c49cb6764736f6c63430008110033",
  "immutableReferences": {},
  "source": "// SPDX-License-Identifier: MIT\npragma solidity ^0.8.17;\n\ncontract SecureAuction {\n    address payable public seller;\n    uint public startTime;\n    uint public endTime;\n    bool public ended;\n    bool public auctionStarted;\n\n    address public highestBidder;\n    uint public highestBid;\n\n    uint public minIncrement;\n    uint public extensionTime;\n    uint public maxBid;\n\n    mapping(address => uint) public pendingReturns;\n    mapping(address => bool) private hasPendingRecorded;\n    address[] public pendingParties;\n\n    bool private locked;\n\n    event HighestBidIncreased(address indexed bidder, uint amount);\n    event AuctionExtended(uint newEndTime);\n    event AuctionEnded(address winner, uint amount);\n    event AuctionCancelled();\n    event Withdrawn(address indexed who, uint amount);\n    event WithdrawFailed(address indexed who, uint amount);\n\n    modifier onlySeller() {\n        require(msg.sender == seller, \"Only seller\");\n        _;\n    }\n\n    modifier noReentrant() {\n        require(!locked, \"Reentrant call\");\n        locked = true;\n        _;\n        locked = false;\n    }\n\n    constructor() {\n        seller = payable(msg.sender);\n        auctionStarted = false;\n        ended = false;\n    }\n\n    function startAuction(\n        uint _biddingTime,\n        uint _minIncrement,\n        uint _extensionTime,\n        uint _maxBid\n    ) public onlySeller {\n        require(!auctionStarted, \"Auction already started\");\n        require(_biddingTime > 0, \"Invalid bidding time\");\n        require(_minIncrement > 0, \"Invalid min increment\");\n\n        startTime = block.timestamp;\n        endTime = block.timestamp + _biddingTime;\n        minIncrement = _minIncrement;\n        extensionTime = _extensionTime;\n        maxBid = _maxBid;\n\n        auctionStarted = true;\n        ended = false;\n        highestBid = 0;\n        highestBidder = address(0);\n    }\n\n    function bid() external payable {\n        require(auctionStarted, \"Auction not started\");\n        require(block.timestamp < endTime, \"Auction ended\");\n        require(msg.sender != seller, \"Seller cannot bid\");\n\n        uint required = highestBid + minIncrement;\n        require(msg.value >= required, \"Bid below min increment\");\n        if (maxBid != 0) {\n            require(msg.value <= maxBid, \"Above maxBid\");\n        }\n\n        if (highestBid != 0) {\n            pendingReturns[highestBidder] += highestBid;\n            if (!hasPendingRecorded[highestBidder]) {\n                hasPendingRecorded[highestBidder] = true;\n                pendingParties.push(highestBidder);\n            }\n        }\n\n        highestBidder = msg.sender;\n        highestBid = msg.value;\n\n        if (endTime - block.timestamp < extensionTime) {\n            endTime += extensionTime;\n            emit AuctionExtended(endTime);\n        }\n\n        emit HighestBidIncreased(msg.sender, msg.value);\n    }\n\n    function withdraw() external noReentrant returns (bool) {\n        uint amount = pendingReturns[msg.sender];\n        require(amount > 0, \"No funds\");\n        pendingReturns[msg.sender] = 0;\n        (bool success, ) = payable(msg.sender).call{value: amount}(\"\");\n        if (!success) {\n            pendingReturns[msg.sender] = amount;\n            emit WithdrawFailed(msg.sender, amount);\n            return false;\n        }\n        emit Withdrawn(msg.sender, amount);\n        return true;\n    }\n\n    function endAuction() external onlySeller noReentrant {\n        require(auctionStarted, \"Auction not started\");\n        require(block.timestamp >= endTime, \"Auction not yet ended\");\n        require(!ended, \"Already ended\");\n\n        ended = true;\n        auctionStarted = false;\n\n        emit AuctionEnded(highestBidder, highestBid);\n\n        uint amount = highestBid;\n        highestBid = 0;\n        if (amount > 0) {\n            (bool success, ) = seller.call{value: amount}(\"\");\n            if (!success) {\n                pendingReturns[seller] += amount;\n                if (!hasPendingRecorded[seller]) {\n                    hasPendingRecorded[seller] = true;\n                    pendingParties.push(seller);\n                }\n            }\n        }\n    }\n\n    function cancelAuction() external onlySeller noReentrant {\n        require(!ended, \"Already ended\");\n\n        ended = true;\n        auctionStarted = false;\n\n        emit AuctionCancelled();\n\n        if (highestBid != 0) {\n            pendingReturns[highestBidder] += highestBid;\n            if (!hasPendingRecorded[highestBidder]) {\n                hasPendingRecorded[highestBidder] = true;\n                pendingParties.push(highestBidder);\n            }\n            highestBid = 0;\n        }\n    }\n\n    function getPendingParties() external view returns (address[] memory) {\n        return pendingParties;\n    }\n\n    receive() external payable {\n        revert(\"Direct deposits not accepted\");\n    }\n}\n",
  "sourcePath": "C:\\Users\\kavin\\Desktop\\Bchain\\bidding_system\\smart-contract\\contracts\\SecureAuction.sol",
  "compiler": {
    "name": "solc",
    "version": "0.8.17+commit.8df45f5f.Emscripten.clang"
  },
  "schemaVersion": "3.4.16",
  "updatedAt": "2026-01-31T07:06:16.145Z",
  "networkType": "ethereum",
  "devdoc": {
    "kind": "dev",
    "methods": {},
    "version": 1
  },
  "userdoc": {
    "kind": "user",
    "methods": {},
    "version": 1
  }
}